:020000040800F2
:10000000E83A0020B18201089D010008BB82010886
:100010009F010008A3010008A701000800000000DC
:10002000000000000000000000000000AB0100081C
:10003000AD01000800000000C782010819B50008E2
:10004000CB820108CB820108CB820108CB82010858
:10005000CB820108CB820108CB820108CB82010848
:10006000CB820108CB820108CB820108CB82010838
:10007000CB820108CB820108CB820108CB82010828
:10008000CB820108CB820108CB820108CB82010818
:10009000CB820108CB820108CB820108AF010008A6
:1000A000CB820108CB820108CB820108CB820108F8
:1000B000CB820108C1010008C9010008CB820108F8
:1000C000CB820108CB820108CB820108CB820108D8
:1000D000CB820108CB010008D3010008DB01000836
:1000E000CB820108CB820108CB820108CB820108B8
:1000F000CB820108CB820108CB820108CB820108A8
:10010000CB820108CB820108CB820108CB82010897
:10011000E3010008EB010008CB820108CB82010853
:10012000CB820108CB820108CB820108CB82010877
:10013000CB820108CB820108CB820108CB82010867
:10014000CB820108CB820108CB820108ADD3000825
:10015000CB820108CB820108CB820108F3010008A1
:10016000CB820108CB820108CB820108CB82010837
:10017000CB820108CB820108CB820108CB82010827
:10018000CB820108CB820108DFF80CD019F026FFE2
:1001900000480047ED030008E83A0020704700BF20
:1001A000FEE700BFFEE700BFFEE77047704710B5EF
:1001B000802011F01AFD10B1802011F06CFD10BDEF
:1001C00010B50EF0D2FF10BD704710B50DF090FEC7
:1001D00010BD10B50BF027FA10BD10B50BF0F3FAF7
:1001E00010BD10B50BF0ABFB10BD10B50BF087FCCC
:1001F00010BD10B50EF04FFF10BD000010B518F087
:1002000069F8012018F071F810BD70B502460020A1
:1002100012E0145C594B1D881B885B1C574E3380C1
:10022000574B5C5533461B88B3F57A7F02D10023C8
:1002300034462380431CD8B28842EADB70BD10B537
:100240004E4800884F490988401A04B2002C02DA4F
:1002500004F57A7004B23F2C24DB00204A49087070
:100260003F204A490870002014E046490A8809885E
:10027000491C444B198042498A5C444B411C5A54E6
:1002800040490988B1F57A7F02D100213D4A1180A9
:10029000411CC8B23F28E8DB40223C49002019F04D
:1002A000A4F834E038480078401C37490870084604
:1002B000007837490978884229D1002032490870EE
:1002C00032490C7000BF1BE0A04213DA2D490A88A6
:1002D0000988491C2B4B198029498A5C2B4B411CEE
:1002E0005A5428490988B1F57A7F07D10021254A57
:1002F000118003E00022254B411C5A54411CC8B216
:100300003F28E1DB40222149002019F06EF810BDA2
:1003100010B50446012C02D0032C11D10EE059B9BE
:1003200023B1012B05D0022B04D100E000BF4020F7
:1003300010BD00BF00BF00BF00BF01E00120F7E714
:1003400000BF0020F4E72DE9F04706468846144632
:100350009946089F022E02D0032E0CD10AE00125F7
:1003600004E0605D01F0B3FE681CC5B22078A842CD
:10037000F7DA00E000BF00BFBDE8F087040000200E
:10038000E00400200200002006000020C808002031
:100390000000002018F01CBF7047002070470020AC
:1003A00070470020704700207047002070470020F1
:1003B00070470020704700207047002070470020E1
:1003C00070470020704700207047002070470020D1
:1003D000704718F024BF7047002070470020704716
:1003E00018F068BD7047000000BFFEE700F0D8FDC0
:1003F0000349087000F0B0F801E000F0D3F8FCE722
:100400008814002010B57A484068794908600BF0DC
:1004100032F8774948607749C86075484068744940
:100420000968401A7249886008F0E2FD012005F071
:100430001FFD012008F002FE08F060FE0DF0A6FD91
:100440006D49012006F0CCFE012007F020F99FED58
:100450006B0A03F015FB01F041FE0BF00CF8654947
:10046000086108460069C968401A6249486110BDC0
:1004700010B59FED630A06F092FC022008F0A2FB83
:10048000022002F032FB10BD10B504F036FE5A48CF
:100490009FED5C0A06F0B0F99FED5A0A0EF01AFDC6
:1004A00010BD10B50AF0E7FF524908600A2002F0BB
:1004B000A9F80A2007F09EF90A2008F030FE0A2069
:1004C0000DF085FD9FED500A05F0AAFF9FED4E0A45
:1004D00005F0AEFE9FED4C0A02F0E0F80A2009F0AC
:1004E000ABF80AF0C8FF434948600846406809680D
:1004F000401A4049886010BD10B519F0D7FA142091
:1005000008F0E3FD142000F0C6F8142003F079FC95
:100510003949142007F0E1FA14200EF0B9F814203C
:1005200002F079FE142002F0BEFF142002F036FC27
:1005300010BD10B5322008F04DFC32200DF065FEE4
:100540003248007808B90EF0ABFE10BD10B54FF47C
:10055000FA7009F009FC10BD002000BF1FE000EB9D
:1005600040012B4A02EB810189884FF47A7292FB99
:10057000F1F100EB4002264B03EB8202D18000EB4D
:1005800040011A4602EB8101C988012905DA0121DF
:1005900000EB400203EB8202D180411CC8B2072865
:1005A000DDD3704770B5002400BF1EE00AF09EFF47
:1005B000054604EB4400164901EB80008068281AC8
:1005C00004EB4401124A02EB8101C98888420AD334
:1005D00004EB4400114601EB8000856004EB44010C
:1005E00052F821008047601CC4B2072CDED370BDD6
:1005F000280C0020340C0020E81000206F12833AF1
:100600006F12033B0AD7A33B0AD7233C3C3100209F
:10061000140000200179C27801EB0221FE4A11800A
:100620008179427901EB0221FC4A11808178FC4AF0
:10063000517070470020FB49087000BF28E0032874
:1006400018DA9FEDF90AF6492C3101EB800181EDB2
:10065000000A9FEDF50AF249383101EB800181ED86
:10066000000A9FEDF10AEE49443101EB800181ED72
:10067000000A03E00021EA4AA2F850100022E849EB
:10068000143141F82020103941F82020411CC8B213
:100690000428D4DB704710B50446E14841788078DF
:1006A00081421FD0FFF7C6FFE04890F8380068B9D4
:1006B000DF48C07D012809D1DE48807810B9DD48C7
:1006C000407918B10120D64908700BE00020D449C8
:1006D0000870D9A30222AF21052001F05CFA0020A6
:1006E000CF494870CE48407806286ED006DC0628F0
:1006F0006CD2DFE800F06B10416CCEFD09287DD094
:1007000004DC07287BD0082860D1ADE20A2877D026
:10071000A028F9D14AE0C248007860B3C448C07C40
:1007200070B9C048007830BB0120BE490870C6A32C
:100730000222AF21052001F02EFA06F0E8FC1AE0B3
:10074000BB48C07C022809D1C2A30222AF210520E8
:1007500001F021FA0020B24948700CE0B448C07C96
:10076000022808DDBFA30222AF21052001F013FA01
:100770000020AB4948708EE3AD48C07C022808D108
:10078000BBA30222AF21052001F005FA06F0CEFC42
:100790000BE0A748C07C40B9B8A30222AF210520D6
:1007A00001F0F9F900209E49487074E3A048C07A2E
:1007B00050B1B5A30222AF21052001F0ECF90020D1
:1007C0009B4988729649487065E38FE162E39348DC
:1007D000008800EE100AB8EE400A914880ED0D0A3C
:1007E0008E48008898B38C4800884FF47A7148434B
:1007F00000EE100AF8EEC00A884802E093E2D5E164
:10080000ECE20088002802DC9FED870A17E0A3488D
:1008100090ED011A8148008800EE100AB8EE400AF7
:10082000B4EEC01AF1EE10FA03D29C4890ED010A22
:1008300005E07A48008800EE100AB8EE400A80EE23
:10084000801ABCEEC10A764880ED070A03E0FFE794
:1008500000217348C1617248C06830B990A3022278
:10086000AF21052001F097F90DE06D48C169C0681E
:10087000814208D28CA30222AF21052001F08BF91E
:100880000020674948706648C06801196448C16023
:1008900001E362480088404200EE100AB8EEC00A48
:1008A0005F4880ED0D0A5D480088A8B35A4800886B
:1008B0004FF47A71484300EE100AF8EEC00A574828
:1008C0000088002802DC9FED580A1DE0734890ED77
:1008D000020AB1EE401A5148008800EE100AB8EE44
:1008E000400AB4EEC01AF1EE10FA07D26B4800E0ED
:1008F00034E090ED020AB1EE400A05E04748008876
:1009000000EE100AB8EE400A80EE801ABCEEC10A72
:10091000434880ED070A03E0FFE700214048C1613A
:100920003F48C06830B963A30222AF21052001F01F
:1009300032F90DE03A48C169C068814208D260A32B
:100940000222AF21052001F026F900203449487029
:100950003348C06801193248C1609CE22F480088C2
:1009600000EE100AB8EE400A2D4880ED0B0A2B4825
:10097000008878B3284800884FF47A71484300EE25
:10098000100AF8EEC00A25480088002802DC9FED16
:10099000260A17E0414890ED001A2048008800EE32
:1009A000100AB8EE400AB4EEC01AF1EE10FA03D203
:1009B0003A4890ED000A05E01848008800EE100A59
:1009C000B8EE400A80EE801ABCEEC10A144880EDF1
:1009D000050A03E0FFE7002011494861104840681C
:1009E00030B93AA30222AF21052001F0D4F80EE07D
:1009F0000B4840690A494968884208D236A3022256
:100A0000AF21052001F0C7F80020054948700448CF
:100A100040682044024967E0680000206A00002026
:100A20004C0C00206C0000200000000080310020F1
:100A300088140020F0000020464320537461746540
:100A4000204572726F72210054616B65206F66667B
:100A50002100000054616B65206F6666204F4B21BA
:100A600000000000434D44204572726F7221000067
:100A70004C616E64696E6721000000004C616E6419
:100A8000696E67204F4B2100456D657267656E6327
:100A9000792073746F70204F4B210000AC1400203C
:100AA000476F207570210000476F207570204F4BF5
:100AB00021000000476F20646F776E210000000066
:100AC000476F20646F776E204F4B2100476F206186
:100AD0006865616421000000476F2061686561649A
:100AE000204F4B21000000004860D4E1FC48008802
:100AF000404200EE100AB8EEC00AFA4880ED0B0A38
:100B0000F748008878B3F84800884FF47A71484372
:100B100000EE100AF8EEC00AF1480088002802DC56
:100B20001FED3F0A17E0F14890ED001AEC480088ED
:100B300000EE100AB8EE400AB4EEC01AF1EE10FA58
:100B400003D2EA4890ED000A05E0E548008800EE8F
:100B5000100AB8EE400A80EE801ABCEEC10AE148E5
:100B600080ED050A03E0FFE70020DE494861DD482B
:100B7000406830B9DEA30222AF21052001F00BF856
:100B80000EE0D8484069D7494968884208D2DBA3BB
:100B90000222AF21052000F0FEFF0020D14948705D
:100BA000D04840682044CF49486074E1CC48008870
:100BB00000EE100AB8EE400ACA4880ED0C0AC84898
:100BC000008878B3C84800884FF47A71484300EE33
:100BD000100AF8EEC00AC2480088002802DC1FEDA7
:100BE0006E0A17E0C14890ED001ABD48008800EE7B
:100BF000100AB8EE400AB4EEC01AF1EE10FA03D2B1
:100C0000BA4890ED000A05E0B548008800EE100AE9
:100C1000B8EE400A80EE801ABCEEC10AB14880ED01
:100C2000060A03E0FFE70021AE488161AD48806815
:100C300030B9B5A30222AF21052000F0ACFF0DE0D2
:100C4000A84881698068814208D2B2A30222AF21FC
:100C5000052000F0A0FF0020A2494870A14880684C
:100C60000119A048816016E19D480088404200EECD
:100C7000100AB8EEC00A9B4880ED0C0A984800881C
:100C800078B3994800884FF47A71484300EE100A0F
:100C9000F8EEC00A92480088002802DC1FED9E0A88
:100CA00017E0924890ED001A8D48008800EE100A77
:100CB000B8EE400AB4EEC01AF1EE10FA03D28B4837
:100CC00090ED000A05E08648008800EE100AB8EEB4
:100CD000400A80EE801ABCEEC10A824880ED060A06
:100CE00003E0FFE700217F4881617E48806830B9DA
:100CF0008BA30222AF21052000F04DFF0DE07948C3
:100D000081698068814208D288A30222AF21052030
:100D100000F041FF00207349487072488068011953
:100D200070488160B7E06E48008800B26D49A1F854
:100D300050006B48008878B36B4800884FF47A7194
:100D4000484300EE100AF8EEC00A65480088002803
:100D500002DC1FEDCB0A17E0644890ED031A6048EF
:100D6000008800EE100AB8EE400AB4EEC01AF1EEA8
:100D700010FA03D25D4890ED030A05E05848008858
:100D800000EE100AB8EE400A80EE801ABCEEC10AEE
:100D9000544880ED080A03E0FFE700215148016252
:100DA0005048006930B965A30222AF21052000F048
:100DB000F2FE0DE04B48016A0069814208D262A34D
:100DC0000222AF21052000F0E6FE002045494870D0
:100DD000444800690119434801615CE040480088CB
:100DE000404200B23F49A1F850003D48008878B326
:100DF0003D4800884FF47A71484300EE100AF8EE3F
:100E0000C00A37480088002802DC1FEDF90A17E005
:100E1000364890ED031A3248008800EE100AB8EE0A
:100E2000400AB4EEC01AF1EE10FA03D22F4890ED4A
:100E3000030A05E02A48008800EE100AB8EE400ACE
:100E400080EE801ABCEEC10A264880ED080A03E055
:100E5000FFE70021234801622248006930B93EA320
:100E60000222AF21052000F096FE0DE01D48016A28
:100E70000069814208D23BA30222AF21052000F085
:100E80008AFE002017494870164800690119154864
:100E9000016100E000BF00BF1248407808B9FFF7C9
:100EA000C9FB1048417881703248C07AB0B10D4A10
:100EB0003832A2F1140101F1080003F016FC094ACE
:100EC00044322D49A2F10C0003F0F0FB054890EDEF
:100ED0000D0A80ED100A80ED130A5BE04EE0000081
:100EE0006A0000204C0C002068000020AC14002098
:100EF000476F206261636B2100000000476F206232
:100F000061636B204F4B2100476F206C6566742135
:100F100000000000476F206C656674204F4B210075
:100F2000476F20726967687421000000476F207264
:100F300069676874204F4B21000000005475726E81
:100F4000206C6566742100005475726E206C6566B5
:100F500074204F4B210000005475726E2072696737
:100F6000687421005475726E207269676874204F2E
:100F70004B2100008814002038010020064890ED25
:100F80000D0A064880ED090A034890ED0E0A034851
:100F900080ED0A0A10BD0000040100204C0C002066
:100FA00010B54FF480600EF009FA0AF032FA6420AE
:100FB0000AF08AFA08F0D2F90BF040FA02F04BFF7F
:100FC0000DF0E6FD0AF052F864200AF07DFA09F00F
:100FD000B5FF0AF0F7FD0AF077FE0DF011FD2D497F
:100FE00048700870012088700BF0ACF82949C8706F
:100FF000FFF704F964200AF067FA4FF416500AF07C
:101000009FFA0A200AF060FA23480AF067FB224898
:101010000AF00EFD20480AF031FC08F0FEFC6420C6
:101020000AF052FA06F028F80CF07BFD32200AF0A4
:101030004BFA0DF093F804F014FF00F03DF8174957
:1010400091F81A01303118F005FC15A30222AF21E6
:10105000052000F0A0FD012010BD10B5044624B10C
:101060000121134811F030F903E00121104811F07B
:10107000FAF810BD10B504462CB14FF480610D484C
:1010800011F022F904E04FF480610A4811F0EBF806
:1010900010BD0000BC14002020A10700741A00201D
:1010A00053595320696E6974204F4B210000000092
:1010B000000C0240000802400A21FE48A0F89E10E1
:1010C0001421A0F8A4100A21A0F8AA100021A0F869
:1010D000B0103221A0F8B610A0F8BC10A0F8C210D1
:1010E000A0F8C810C821A0F8E610A0F8EC10A0F8ED
:1010F000F8106421A0F810113221A0F81C11002072
:101100001BE000EB4002EB49903101EB42014A88C1
:1011100000EB4003E84901EB43014A8000EB400249
:10112000E449903101EB42018A8800EB4003E24937
:1011300001EB43018A80411CC8B21828E1DB7047EB
:1011400070B504460D46164604F0010018B131464C
:101150002846FFF75AF804F0040018B13146284633
:101160000AF0FDFC70BD3CB50246092A7ED008DCC1
:10117000092A7CD2DFE802F07B18B3FDFCFBFAF908
:10118000F800302A74D008DC0D2A72D00E2A71D0F3
:101190000F2A70D0202A6AD1DAE2402A6CD0412A84
:1011A0006BD0F12AF7D1D4E2C44890ED1C0ABDEE11
:1011B000C00A10EE100A00B201909DF804300C78BD
:1011C000601C0870BE4803559DF805300C78601C03
:1011D0000870BB480355B94890ED1D0ABDEEC00A22
:1011E00010EE100A00B201909DF804300C78601CDB
:1011F0000870B34803559DF805300C78601C0870E2
:10120000AF480355AD4890ED1E0ABDEEC00A10EE82
:10121000100A00B201909DF804300C78601C087030
:10122000A74803559DF805300C78601C0870A44849
:101230000355A24890ED160ABDEEC00A10EE100A42
:1012400000B201909DF804300C78601C08709C4836
:1012500003559DF805300C78601C087098480355BC
:10126000964890ED170ABDEEC00A07E00EE282E252
:1012700050E20CE232E26AE25AE267E210EE100A51
:1012800000B201909DF804300C78601C08708C4806
:1012900003559DF805300C78601C0870884803558C
:1012A000864890ED180ABDEEC00A10EE100A00B292
:1012B00001909DF804300C78601C0870804803553C
:1012C0009DF805300C78601C08707D4803557B48FC
:1012D00003780C78601C0870794803554CE2794813
:1012E000408801909DF804300C78601C08707448A8
:1012F00003559DF805300C78601C08707048035544
:101300007048808801909DF804300C78601C08704B
:101310006B4803559DF805300C78601C08706848D0
:1013200003556848C08801909DF804300C78601C13
:101330000870634803559DF805300C78601C0870F0
:101340005F480355604890ED030ABDEEC00A8DED7D
:10135000000A9DF800300C78601C0870584803554E
:101360009DF801300C7805E053E10CE1ECE08FE0F2
:101370008DE034E0601C0870514803559DF8023040
:101380000C78601C08704E4803559DF803300C78AB
:10139000601C08704A480355484890ED1F0ABDEE8E
:1013A000C00A10EE100A00B201909DF804300C78CB
:1013B000601C0870424803559DF805300C78601C8D
:1013C00008703F48035500230C78601C08703C48A7
:1013D00003550C78601C087039480355CCE13B4834
:1013E00090ED370ADFED3A0A20EE200ABDEEC00A82
:1013F00010EE100A00B201909DF804300C78601CC9
:1014000008702F4803559DF805300C78601C087053
:101410002B4803552D4890ED380ADFED2D0A20EEBC
:10142000200ABDEEC00A10EE100A00B201909DF82D
:1014300004300C78601C0870214803559DF8053075
:101440000C78601C08701E480355204890ED390A3E
:10145000DFED1F0A20EE200ABDEEC00A10EE100AD2
:1014600000B201909DF804300C78601C087014489C
:1014700003559DF805300C78601C08701048035522
:1014800000230C78601C08700D48035574E173E16B
:10149000104890ED050ABDEEC00A8DED000A9DF8DA
:1014A00000300C78601C0870054803559DF8013029
:1014B0000C7811E0A00C0020C00D0020403200206C
:1014C000500E002004030020A02F00200401002063
:1014D0000000C84250150020601C0870FE480355EB
:1014E0009DF802300C78601C0870FB4803559DF88D
:1014F00003300C78601C0870F7480355F7484088A3
:1015000000909DF800300C78601C0870F24803557C
:101510009DF801300C78601C0870EF4803559DF869
:1015200002300C78601C0870EB4803559DF80330BE
:101530000C78601C0870E848035500230C78601C88
:101540000870E548035517E1E548C37D0C78601C39
:101550000870E1480355E248C37A0C78601C0870B3
:10156000DD48035500230C78601C0870DA480355E9
:101570000C78601C0870D84803550C78601C087003
:10158000D5480355F8E0D74890ED030ABDEEC00AF0
:1015900010EE100A00B201909DF804300C78601C27
:1015A0000870CD4803559DF805300C78601C087014
:1015B000C9480355CB4890ED040ABDEEC00A10EEB1
:1015C000100A00B201909DF804300C78601C08707D
:1015D000C14803559DF805300C78601C0870BE4862
:1015E0000355C14890ED050ABDEEC00A10EE100A81
:1015F00000B201909DF804300C78601C0870B64869
:1016000003559DF805300C78601C0870B2480355EE
:10161000B2E0002000909DF800300C78601C08704B
:10162000AD4803559DF801300C78601C0870AA483D
:1016300003559DF802300C78601C0870A6480355CD
:101640009DF803300C78601C0870A34803550020F7
:1016500000909DF800300C78601C08709E4803557F
:101660009DF801300C78601C08709B4803559DF86C
:1016700002300C78601C0870974803559DF80330C1
:101680000C78601C08709448035575E074E0974826
:1016900090ED000A5FED720A20EE200ABDEEC00A4E
:1016A00010EE100A00B201909DF804300C78601C16
:1016B0000870894803559DF805300C78601C087047
:1016C0008548035500230C78601C08708248035538
:1016D0000C78601C0870804803554DE0844883787E
:1016E0000C78601C08707C48035500230C78601C43
:1016F0000870794803557E4843790C78601C08705F
:10170000754803557A48C3780C78601C0870724895
:10171000035531E0002008E0764B1C5C0D786B1C13
:101720000B706D4B5C55431CD8B21728F4DB23E0DB
:10173000002008E0704B1C5C0D786B1C0B70664B36
:101740005C55431CD8B21428F4DB15E014E013E018
:1017500012E06348808B01909DF804300C78601C87
:1017600008705D4803559DF805300C78601C0870C2
:101770005948035500E000BF00BF3CBD2DE9F843C8
:1017800081460D46904600200090AA219DF8002039
:10179000501CC0B20090504881549DF80010481C65
:1017A000C0B200904C4800F80180182D01DBBDE864
:1017B000F8835248465D9DF80010481CC0B2009066
:1017C0004548465400219DF80020501CC0B20090AE
:1017D0004148815469463046FFF7C5FC9DF800003A
:1017E000001F3D49C87000240027002007E03A4947
:1017F000095C2144CCB23919CFB2411CC8B29DF862
:1018000000108842F3DB9DF80010481CC0B2009025
:10181000314844549DF80010481CC0B200902E4836
:1018200047549DF8002001464846FFF789FC00BF59
:10183000BDE7F0B503460C4600212BE001EB41006B
:1018400000EB81102E4D285C10BB01EB410000EB3A
:1018500081102844437001EB410000EB81102844C3
:10186000827000200AE0265C01EB410505EB811542
:10187000234F3D44ED1C2E54451CE8B29042F2DB50
:10188000012001EB410505EB81151D4E7055F0BDA2
:10189000481CC1B20529D1DB0020F8E770B500244F
:1018A0003DE004EB440000EB84101549085C48B3AC
:1018B00004EB440303EB84130D462B449A7804EBAA
:1018C000440303EB84132B44D91C04EB440303EBC4
:1018D00084132B44587816E0500E0020AC020020F0
:1018E000881400200C1A0020381500202C0300203A
:1018F000F000002004310020BA310020E8A10108E6
:10190000900E002009E0FFF71BFC002004EB4401CF
:1019100001EB84112A46505470BD601CC4B2052CE2
:10192000BFDB00BFF8E770B50446012C04D0022CE1
:1019300014D0042C37D121E001EB4106F64D05EB24
:101940004605AA1C01EB4106F34D05EB4605281D93
:1019500001EB4106F04D05EB460325E001EB4105A7
:10196000EE4E06EB4505AA1C01EB410506EB4505CD
:10197000281D01EB410506EB450315E001EB41068F
:10198000E54D903D05EB4605AA1C01EB4106E24DF5
:10199000903D05EB4605281D01EB4106DE4D903DCF
:1019A00005EB460300E070BD00BF182900DBFAE735
:1019B000158855B105881688B54203DA05886D1C6F
:1019C000058002E001251D70058000BFEBE72DE9D1
:1019D000F04107460C46012F04D0022F09D0042FF6
:1019E00016D10DE0AF2604EB4401CB4800EB4105D6
:1019F00011E0FF2604EB4400C84901EB40050AE072
:101A0000AF2604EB4401C448903800EB410502E0E6
:101A10000020BDE8F08100BF182C01DB0020F8E7B2
:101A2000287840B100202870324621463846FFF71A
:101A3000A5FE0120EDE70020EBE72DE9F05F8246EF
:101A40000E4617469846DDF828B00024AA22214603
:101A5000641CB34842542146641C4654002221466B
:101A6000641C42542146641C42542146641C475461
:101A70002146641C00F801802146641C00F801B076
:101A8000201FA749C87000254FF00009002009E079
:101A9000A349095C2944CDB209EB050101F0FF0916
:101AA000411CC8B2A042F3DB2046611CCCB29C4969
:101AB0000D542046611CCCB2994901F80090224691
:101AC0005046FFF7B6FEBDE8F09F2DE9F74181B023
:101AD00080460E4600200090BDF80C0008F07DF90D
:101AE00000900024AA222146641C8D4842542146BD
:101AF000641C4654E2222146641C425400222146C2
:101B0000641C42549DF80C202146641C42549DF8EC
:101B10000D202146641C42549DF800202146641C7F
:101B200042549DF801202146601CC4B27C484254B6
:101B30009DF802202046611CCCB279490A549DF8D8
:101B400003202046611CCCB275490A54201FC8707E
:101B500000250027002007E07149095C2944CDB227
:101B60007919CFB2411CC8B2A042F5DB2046611CF6
:101B7000CCB26B490D542046611CCCB268490F545D
:101B800022464046FFF755FEBDE8FF8100BF00BF7B
:101B900000BF00BF70472DE9F05F8346884691463D
:101BA0001E460024AA222146641C5D484254214658
:101BB000641C00F80180A0222146641C42540022CB
:101BC0002146641C42542146641C00F80190924650
:101BD0000CE05046411C01F0FF0A325C2046611CBB
:101BE000CCB24F490A54322C00DD03E016F80A004B
:101BF0000028EED100BF201F4949C87000250027EA
:101C0000002007E04649095C2944CDB27919CFB2DA
:101C1000411CC8B2A042F5DB2046611CCCB2404951
:101C20000D542046611CCCB23D490F542246584603
:101C3000FFF7FFFDBDE8F09F2DE9F84380460C4615
:101C4000154600260027E178A81F814201D0BDE893
:101C5000F883002006E0215C3144CEB2B919CFB23E
:101C6000411CC8B2A91E8142F5DC601910F8020CB3
:101C7000B04204D1601910F8010CB84200D0E6E778
:101C8000A07840287CD0A0784128FBD0A0783028CC
:101C9000F8D0A0783228F5D0A0783328F2D0A078F8
:101CA0003428EFD0A0780D28ECD0A078E02868D1B7
:101CB0002079012804D0102864D011287AD196E028
:101CC000607940BBA079012859D0A079022856D06C
:101CD000A079032853D0A079042850D0A0790528F2
:101CE0004DD0A07910284AD0A079612847D0A0799A
:101CF000622844D0A079AA2804D107F0EBFE02F0B4
:101D00009FF83CE0A079AB280CD1012007F07BFFC5
:101D100002F096F833E010E0C00D0020A00C002087
:101D2000DF0F0020A079AC2829D107F0D3FE0220D4
:101D300007F069FF02F084F821E06079012800D102
:101D40001DE0607930281AD1A07901280AD1F9481C
:101D5000C07AA0B90120F84988700020F74981F8BD
:101D60001A010CE0A079022809D1F248C07A30B9F2
:101D70000220F34908700020F04981F81B0138E087
:101D80005FE03FE0607950BBA07907281ED007DCF8
:101D9000072822D2DFE800F02114151617181900C1
:101DA000602817D007DC082811D0092810D00A288D
:101DB00013D10EE01CE061280DD062280DD10BE09C
:101DC0000CE00BE00AE009E008E007E006E005E0CF
:101DD00004E003E002E001E000E000BF06E060791B
:101DE000012803D06079022800D000BF01E000E0A4
:101DF00000BF00BF0097A2783346AF214046FFF7EF
:101E00001CFE1EE0A078E0B1A078E12805D1A288F0
:101E1000AF214046FFF759FE13E0A078E2280CD12D
:101E2000D4F80610A08808F01AFB0097A278334671
:101E3000AF214046FFF701FE03E0A078602800D004
:101E400000BF00BF03E770B504460D4604EB440035
:101E500000EB8410BB49084490F84200072875D273
:101E6000DFE800F00416374875CBF600AA2D0ED136
:101E7000012004EB440101EB8411B24A114481F8C2
:101E8000420004EB440000EB841011460D5415E1B0
:101E9000052D03D0FF2D01D0052D10D1022004EB1C
:101EA000440101EB8411A74A114481F8420004EB7C
:101EB000440000EB841011460844457008E00020FF
:101EC00004EB440101EB84119E4A114481F8420065
:101ED000F4E0032004EB440101EB8411994A11441E
:101EE00081F8420004EB440000EB841011460844E2
:101EF0008570E3E03B2D1FDA042004EB440101EB85
:101F00008411904A114481F8420004EB440000EB34
:101F1000841011460844C57004EB440000EB8410A3
:101F2000084480F84050002004EB440101EB841188
:101F3000114481F8410008E0002004EB440101EB6A
:101F40008411804A114481F84200B7E0ACE004EB10
:101F5000440000EB84107B49084490F840000028BE
:101F600041DD04EB440000EB8410084490F840008D
:101F7000401E04EB440101EB8411724A114481F8C4
:101F8000400004EB440000EB84101146084490F834
:101F9000410004EB440101EB8411114491F841101C
:101FA000491C04EB440202EB8412664B1A4482F88B
:101FB0004110001D04EB440101EB84111A46114449
:101FC0000D5404EB440000EB84101146084490F8D3
:101FD000400088B9052004EB440101EB8411114451
:101FE00081F8420008E0002004EB440101EB841179
:101FF000544A114481F8420060E0062004EB440199
:1020000001EB84114F4A114481F8420004EB440073
:1020100000EB84101146084490F8410004EB4401A1
:1020200001EB8411114491F84110491C04EB440266
:1020300002EB8412434B1A4482F84110001D04EB5A
:10204000440101EB84111A4611440D5436E0FFE7B8
:10205000002004EB440101EB84113A4A114481F859
:10206000420004EB440000EB84101146014404EBF1
:10207000440000EB8410104490F84100001D0D5402
:1020800004EB440000EB84101146084490F8410032
:10209000401DC6B204EB440000EB841081183246A8
:1020A0002046FFF7C9FD09E0002004EB440101EBE5
:1020B0008411244A114481F8420000BF00BF70BD62
:1020C00010B5044621460420FFF7BDFE10BD10B533
:1020D000044621460120FFF7B6FE10BD10B5FFF7FC
:1020E000DDFB002409E021460420FFF71CFC21460B
:1020F0000120FFF718FC601CC4B2182CF3DB00248D
:1021000005E021460420FFF762FC601CC4B2182CD5
:10211000F7DB002407E021460120FFF758FC00B15F
:1021200003E0601CC4B2182CF5DB00BFFEF787F893
:1021300010BD000088140020C8040020741A00207C
:10214000040300201F10002070B5DDE904452BB109
:102150000E882EB10E8806440E8001E001260E8006
:102160000E88964202DB2C7000260E8070BD7CB576
:102170000546FE480079022824DCFD48407808BB6B
:10218000FC484078B8B1FB480078A0B1F948C07865
:1021900050B1F648407818B10020F449487214E074
:1021A0000120F249487210E00120F34948720220F0
:1021B000EE49487209E00120EF49C8710320EB495C
:1021C000487202E00420E9494872E848C07A0028D1
:1021D00040D1E648807A002849D0E448407A50B996
:1021E000E248807AE149C872E4A30222AF210520C7
:1021F000FFF7D1FC3BE00020DC4988720846407ABA
:10220000012806D1E0A30222AF210520FFF7C3FC7D
:102210002DE0D648407A022806D1DBA30222AF2166
:102220000520FFF7B8FC22E0D048407A032806D109
:10223000D5A30222AF210520FFF7ADFC17E0CB4864
:10224000407A042813D1D4A30222AF210520FFF73E
:10225000A2FC0CE0C548807A28B9D5A30222AF21A0
:102260000520FFF798FCC148807AC049C872D5485C
:10227000B0F9040010F5967F7EDAD248B0F9060076
:10228000002803DDCF48B0F9060003E0CD48B0F9DF
:102290000600404200EE100AB8EEC00AF3EE0E0A45
:1022A000B4EEE00AF1EE10FA14DDC648B0F902000F
:1022B00000EE100AB8EEC00AFBEE0E0AB4EEE00A19
:1022C000F1EE10FA06D2A948407B30B90120A749A7
:1022D000487302E00020A5494873BA48B0F90200EB
:1022E00010F5967F12DAB748B0F90000B0F5967F86
:1022F0000CDDB448B0F9060010F5967F06DA01202F
:10230000B14908700220994948731BE0AD48B0F903
:10231000020010F5967F12DAAA48B0F9000010F515
:10232000967F0CDAA748B0F90600B0F5967F06DD77
:102330000120A549087002208C49487302E0002062
:10234000A149087000248948C07A28B100BF4FF421
:1023500096709E49088004E002244FF4FA709B496D
:10236000088082480A30CDE90040974803789748B2
:1023700002889749284600E002E0FFF7E5FE08E002
:1023800000207A4948730846807A022801D101204A
:1023900088728C48B0F9040010F5AF7F03DD00208F
:1023A0007249087302E00120704908737CBD002067
:1023B00005E00021834A22F81010411CC8B204280D
:1023C000F7DB8048B0F90400002802DD00207D49D9
:1023D000888000207B4908804880C8806348C07A94
:1023E00048B17C48407918B903206049C87402E0BC
:1023F00001205E49887101205F49C8727047F0B5BD
:1024000005AC70CC5CB100270F80CF788FB98F7886
:1024100017B18F787F1C8F700127CF7009E00027DC
:10242000CF700F8807440F800F889F4201DD01277E
:102430008F708F78974202DD357000278F70F0BD66
:102440001EB504464948C07A00286ED14748007B33
:10245000002873D05B48B0F9020010F5AF7F17DA9F
:102460005848B0F90000B0F5AF7F11DD5548B0F91C
:10247000040010F5AF7F0BDA5248B0F90600B0F552
:10248000AF7F05DD0120544908705449087004E00D
:10249000002051490870514908704A48B0F90200BB
:1024A000B0F5AF7F15DD4748B0F90000B0F5AF7F5C
:1024B0000FDD4448B0F9040010F5AF7F09DA414858
:1024C000B0F9060010F5AF7F03DA01204449087027
:1024D00002E00020424908703A48B0F90200B0F525
:1024E000AF7F15DD3748B0F90000B0F5AF7F0FDDE5
:1024F0003448B0F9040010F5AF7F09DA3148B0F97B
:102500000600B0F5AF7F03DD01203649087002E018
:102510000020344908702B48B0F90200B0F5AF7FB5
:1025200004DD01203049087008E06AE02548B0F970
:102530000200322802DA00202B4908702B480121C2
:10254000CDE90010254803784FF47A7228492046D7
:10255000FFF7FAFD27480121234A12784FF47A73D6
:10256000CDE9002102900522234947E0881400208C
:10257000A6030020BC140020641A0020556E6C6F66
:10258000636B204F4B210000556E6C6F636B2046D0
:1025900061696C2100000000506F776572204C6FFC
:1025A000772C556E6C6F636B204661696C2100005F
:1025B0004643204F7574707574204C6F636B65646F
:1025C00021200000E8100020700000207200002090
:1025D0006E000020F00000207F0000207E00002020
:1025E000800000208100002082000020CB04002019
:1025F00074000020040300207A0000202046FFF72A
:10260000FEFE1EBD10B504461F48007890B30020A2
:1026100021E01E4931F81010A1F2DC5109B21C4A28
:1026200022F81010114631F9101011F5FA7F01DC73
:1026300018490BE0164931F91010B1F5FA7F02DDA7
:102640004FF4FA7102E0124931F91010104A22F8E1
:102650001010411CC8B20828DBDB2046FFF787FDBD
:102660002046FFF7EDFE09483A3890F8390010B1DE
:10267000FFF79DFE06E00848C07A012802D100203D
:102680000549C87210BD000088140020BA3100202E
:10269000E81000200CFEFFFF641A002008B5CA48AD
:1026A000D0ED000A9FEDC91AF4EEC10AF1EE10FA5E
:1026B0000BD2D0ED000AB7EE001A70EE810AC0ED21
:1026C000000A0120C249887002E00020C0498870D9
:1026D000BD48D0ED010A9FEDBD1AF4EEC10AF1EE3E
:1026E00010FA0BD2D0ED010AB7EE001A70EE810A93
:1026F000C0ED010A01208DF8000002E000208DF8F5
:102700000000B148D0ED020A9FEDB01AF4EEC10A04
:10271000F1EE10FA0BD2D0ED020AB7EE001A70EE0D
:10272000810AC0ED020A01208DF8010002E00020BC
:102730008DF801009DF8000030B19DF8010018B13E
:102740000120A349C87002E00020A149C87008BD5B
:1027500030B500220024C5788B1F9D4200D030BDCB
:10276000002306E0C55C1544EAB2A518ECB25D1C76
:10277000EBB28D1E9D42F5DC431813F8023C9342E8
:1027800004D1431813F8013CA34200D0E7E7837853
:10279000512B38D103795BB943798D4D6B718379B6
:1027A0005BB2AB71C3795BB2EB71037A2B7183E0DF
:1027B0000379012B12D14379854D2B72C3886B812C
:1027C0000389AB81837A2B719FED820A7E4B83ED67
:1027D000010A2B461B785B1C2B706DE00379022BE2
:1027E0006AD143797A4DAB73C3882B8203896B829C
:1027F0004389AB828389EB82C3892B83038A6B83F2
:10280000837C2B7158E08378342B0DD1D0F80730BE
:102810006F4DEB619FED6F0A6B4B83ED020A2B4608
:102820005B785B1C6B7047E08378012B0DD183884C
:10283000674D2B86C3886B860389AB864389EB86FD
:1028400083892B87C3896B8736E08378042B33D148
:10285000B0F9043000EE103AB8EEC00ADFED5E0ABF
:1028600020EE200A5A4B83ED080AB0F9063000EE3C
:10287000103AB8EEC00ADFED580A20EE200A544B99
:1028800083ED090AB0F9083000EE103AB8EEC00A3C
:10289000DFED510A20EE200A4D4B83ED0A0AB0F914
:1028A0000A3000EE103AB8EEC00ADFED4B0A20EE17
:1028B000200A474B83ED0B0A00BF50E710B50446D2
:1028C0004648007838B9AA2C05D101204349087040
:1028D0004348047077E041480078012809D1052C6D
:1028E00001D0FF2C05D102203C4908703C484470BF
:1028F00069E03A480078022805D10320374908707A
:10290000374884705FE03548007803280CD1FA2CF2
:102910000ADA0420314908703148C4703148047023
:102920000020314908704EE02C480078042819D165
:102930002C480078002815DD2A480078401E2949D7
:1029400008702948007828490978491C264A1170DE
:10295000001D23490C542348007880BB05201F49E3
:10296000087030E01D48007805280DD106201B496D
:1029700008701D4800781C490978491C1A4A1170D2
:10298000001D17490C541EE014480078062817D182
:1029900000201249087014480078001D10490C549A
:1029A0009FED0C0A084880ED000A01200F490870CD
:1029B0000D480078401DC1B20948FFF7C9FE02E08A
:1029C00000200649087010BD681100200000FA437D
:1029D000F81000200000000017B7D1388500002053
:1029E0003411002083000020840000206D000020AE
:1029F000AA49097839B9AA2805D10121A74A117035
:102A0000A749087070E0A5490978012907D1302845
:102A100005D10221A14A1170A149487064E09F4983
:102A20000978022905D103219C4A11709C498870BC
:102A30005AE09A490978032905D10421974A11706F
:102A40009749C87050E09549097804290AD10521B1
:102A5000924A117092490871924908700521924A70
:102A6000117041E08D490978052917D18D49097800
:102A7000002913DD8B490978491E8A4A11708A4959
:102A80000A780978491C884B19708549885485490A
:102A9000097829BB0621814A117025E07F49097810
:102AA00006291ED100217D4A11707D497E4A127887
:102AB00088547E49097899B9002105E0784A525C2A
:102AC0007B4B5A544A1CD1B2774A12789142F5DDB9
:102AD00075490978491C774A11700121734A1170B0
:102AE00002E000216D4A1170704701466F4800787E
:102AF00000287DD000206D4B1870002200BF05E03B
:102B00006B4B1B5C1344DAB2431CD8B2694B1B7885
:102B10005B1E8342F4DC6648664B1B78184410F851
:102B2000010C904200D070476148C078312875D0C0
:102B30005F48C078322871D15D48C0795C4B9B7981
:102B400040EA032000B200EE100AB8EEC00AB1EE6F
:102B5000400ADFED590A80EE201A584880ED041A29
:102B60005348407A524B1B7A40EA032000B200EEF1
:102B7000100AB8EEC00ADFED500A80EE201A4F4866
:102B800080ED031A4A48C07A494B9B7A40EA0320F9
:102B900000B200EE100AB8EEC00ADFED470A80EE80
:102BA000201A464880ED051A4148407B404B1B7B6C
:102BB00040EA032000B200EE100AB8EEC00AB1EEFF
:102BC000400ADFED3D0A80EE201A3C4880ED071AEE
:102BD0003748C07B364B9B7B40EA032000B200EEB7
:102BE000100AB8EEC00ADFED340A80EE201A00E0C9
:102BF00018E0324880ED061A2D48407C2C4B1B7C97
:102C000040EA032000B200EE100AB8EEC00ADFED81
:102C10002A0A80EE201A294880ED081A0020284B45
:102C2000188000BF26480088B0F57A7F08DA24486B
:102C300000880844224A10800120204A507002E097
:102C400000201E4A507000BF6DE710B504461D48B5
:102C5000C07A78B90020194908701B4890ED0D0A18
:102C6000084680ED010A184890ED0E0A084680EDEE
:102C7000020A02E0012011490870104A2432A2F130
:102C8000200101F1080001F030FD0C4A3032A2F1C0
:102C90002C0101F1140001F028FD10BD8B00002073
:102CA000B01200208A0000208C0000208700002045
:102CB000B0110020860000200000C84274110020DE
:102CC00088000020881400200401002010B52DED9C
:102CD000028BF0EE408AB0EE608A2A48C0ED008A8E
:102CE00080ED018A02469FED280A011D02F0F9FDE0
:102CF000BDEC028B10BD234880ED060AD0ED060A1C
:102D00009FED221AF4EEC10AF1EE10FA02D8DFEDBF
:102D10001F0A0FE01B48D0ED060A9FED1D1AF4EEC6
:102D2000C10AF1EE10FA02DDDFED190A02E01548E2
:102D3000D0ED060A1348C0ED060A7047114880ED31
:102D4000070AD0ED070A9FED131AF4EEC10AF1EE5F
:102D500010FA02D8DFED0F0A0FE00A48D0ED070A9B
:102D60009FED0D1AF4EEC10AF1EE10FA02DDDFED6F
:102D70000A0A02E00348D0ED070A0248C0ED070A3C
:102D800070470000B013002000004843000016C345
:102D9000000016430000C8C20000C84201B5344814
:102DA0008088282802DD0120324948703248C07AE4
:102DB00010B900202F4948703048807860B12F4802
:102DC000C07948B12B48407830B12B48007E0128AB
:102DD00002D12849087002E00020264908702848DE
:102DE0008078012813D10020224988700846017894
:102DF000684600F02BFA234890ED0C1AF0EE410AD9
:102E000090ED0B1AB0EE410AFFF760FF2EE01C4870
:102E1000807802281AD10020164988700846017867
:102E2000684600F0BAFC184890ED061AF0EE410A28
:102E300090ED051AB0EE410AFFF748FF1248D0EDB9
:102E4000070AB0EE600AFFF779FF0FE009488078C3
:102E500060B9012007498870DFED0C0A9FED0B0A6D
:102E6000FFF734FF9FED090AFFF768FF08BD000078
:102E7000AC0200208D00002088140020F00000200B
:102E80003C310020D013002014140020000000006A
:102E90000CB5B1F5FA7F06DA00EE101AB8EEC00AEA
:102EA000FD4A82ED000AFD4A92ED050AFC4A82EDD8
:102EB000000AFA4A92ED060AF94A82ED010AF64A38
:102EC00092ED000ADFEDF70A20EE200AF34AD2ED78
:102ED000030A20EE200A82ED050AEF4A92ED000A6D
:102EE000DFEDF00A20EE200AEC4AD2ED040A20EED3
:102EF000200A82ED060A02784FF47A7393FBF2F20D
:102F000000EE102AB8EEC00AE44AD2ED050AE44AFF
:102F100092ED001A70EEC10A20EE200A8DED000A33
:102F2000027893FBF2F200EE102AB8EEC00ADB4AF8
:102F3000D2ED060ADA4A92ED011A70EEC10A20EECD
:102F4000200A8DED010A9DED000AD44AD2ED070A50
:102F500070EE600A92ED070A9FEDD31A01EE200A87
:102F600082ED070A9DED010AD2ED080A70EE600AB3
:102F700092ED080A9FEDCC1A01EE200A82ED080AB4
:102F8000D2ED070AC94AB2F9002000EE102AB8EEC5
:102F9000C00A30EE800AC14A82ED090AD2ED080A61
:102FA000C24AB2F9022000EE102AB8EEC00A30EE92
:102FB000800ABA4A82ED0A0A0CBD017801EE901A25
:102FC000F8EE611A9FEDBA2A61EE821AB0EE611A2C
:102FD000B849497929B10021B04A1170B64A118027
:102FE0000EE0B5490988B1F57A7F06DA0178B24A70
:102FF00012881144B04A118002E00121A74A1170E1
:10300000AC490989A54A5180AA49C98849420AB2EE
:10301000A2498A80A7494979002962D0DFEDA71A21
:1030200060EEA11AFDEEE11A11EE901A09B29B4A68
:10303000D180DFEDA21A60EE211AFDEEE11A11EE49
:10304000901A0AB295490A81B1F9061011F13C0FA4
:1030500002DC6FF03B0109E09049B1F906103C2910
:1030600001DD3C2102E08D49B1F906108B4AD18087
:103070001146B1F9081011F1500F02DC6FF04F0149
:1030800009E08649B1F90810502901DD502102E01C
:103090008249B1F90810814A11818949C97909B178
:1030A000012100E00021012907D18649898A7F4A50
:1030B00011808449C98A518017E08349D1ED0C1AE7
:1030C000FDEEE11A11EE901A09B2784A11807E499C
:1030D000D1ED0D1AFDEEE11A11EE901A09B25180F0
:1030E00003E00021714A118051806C490978E9BBE5
:1030F0006A49B1F90210694AB2F90620891A01EE4B
:10310000901AF8EEE11A714991ED002A31EEC22AC7
:10311000D1ED001ADFED642A42EE821AC1ED001AE9
:103120005E49B1F90420B1F90810511A01EE901A64
:10313000F8EEE11A654991ED012A31EEC22AD1ED8E
:10314000011ADFED592A42EE821AC1ED011AD1EDC2
:10315000001A91ED022A31EEC22AD1ED021ADFEDFA
:10316000522A42EE821AC1ED021A00E019E0D1EDB6
:10317000011A91ED032A31EEC22AD1ED031ADFEDD7
:103180004A2A42EE821AC1ED031AD1ED021A4349CE
:10319000C1ED031A4D49D1ED031A4049C1ED041A9E
:1031A00038E0DFED4B1A21EE212AF7EE002AC2EEBD
:1031B000821AB7EE002A71EE821AF7EE002A82EE2A
:1031C000A12A3649D1ED031ADFED422A72EEE12A37
:1031D000D1ED031A42EE221AC1ED031ADFED3C1ABB
:1031E00021EE212AF7EE002AC2EE821AB7EE002A5B
:1031F00071EE821AF7EE002A82EEA12AD1ED041AAE
:10320000DFED342A72EEE12AD1ED041A42EE221AE1
:10321000C1ED041A704701B526488078012811D104
:103220002D4890ED381AF0EE410A90ED371AB0EEC5
:10323000410A6846FFF7C1FE284881886846FFF7C3
:1032400027FE02E001201549087008BD19B3134A92
:1032500092ED090ADFED140A20EE200AD2ED050AEC
:103260009FED1F1A01EE200AD2ED070A9FED0E1AFC
:1032700001EE200A82ED0B0A92ED0A0ADFED0A0A3E
:1032800020EE200AD2ED060A9FED151A01EE200A63
:10329000D2ED080A26E02CE098000020D013002090
:1032A0009C0000200AD7233CCDCC4C3E920000204D
:1032B0006F12833A3C310020900000209A9919C087
:1032C000BC140020F810002040140020041400203A
:1032D0009CC4A03F0000000004010020AC020020BC
:1032E000CDCC4C3F1FED101A01EE200A82ED0C0AE6
:1032F00006E01FED080A034A82ED0C0A82ED0B0A74
:1033000070470000D0130020B1F5FA7F06DA00EE16
:10331000101AB8EEC00AFD4A82ED000AFC4A92ED8E
:10332000030AFC4A82ED000AF84A92ED000ADFED3A
:10333000FA0A20EE200AF64AD2ED020A20EE200A0E
:1033400082ED030A02784FF47A7393FBF2F200EEF7
:10335000102AB8EEC00AEE4AD2ED030AED4A92ED09
:10336000001A70EEC10A20EE200AE94A82ED040A32
:103370007047B0EE601A017801EE901AF8EE611A0B
:103380009FEDE62A61EE821AF0EE610AE449097BBC
:1033900029B10021DE4A1170E24A11800EE0E149B4
:1033A0000988B1F57A7F06DA0178DE4A128811447D
:1033B000DC4A118002E00121D54A1170D849098AFE
:1033C000494209B2D24A5180D549097BF1B1DFEDBA
:1033D000D61A60EE211AFDEEE11A11EE901A09B22A
:1033E00091801146B1F9041011F1500F02DC6FF019
:1033F0004F0109E0C649B1F90410502901DD5021FF
:1034000002E0C349B1F90410C14A9180C04909786A
:1034100059BBBF49B1F90210BD4AB2F90420891A5B
:1034200001EE901AF8EEE11AC04991ED002A31EE52
:10343000C22AD1ED001ADFEDBE2A42EE821AC1ED9A
:10344000001AD1ED001A91ED012A31EEC22AD1ED18
:10345000011ADFEDB72A42EE821AC1ED011AD1ED51
:10346000011AAB49C1ED021A1CE0DFEDB21A60EEA1
:10347000A11AB7EE002AC2EE212AF7EE001A72EE68
:10348000A11AF7EE002A82EEA12AA149D1ED021A73
:10349000DFEDA92A72EEE12AD1ED021A42EE221ADC
:1034A000C1ED021A704701B59D488078022811D1FC
:1034B000A24890ED381AF0EE410A90ED371AB0EEBE
:1034C000410A6846FFF755FF9D4881886846FFF727
:1034D0001BFF02E001208E49087008BD9949097858
:1034E00004297ED007DC79B1012921D0022941D0FD
:1034F00003296BD157E0052969D00C2968D00D2923
:1035000067D01429F5D1F0E09FED8B0A804981ED59
:10351000070A9FED890A81ED050A9FED870A81ED73
:10352000060A0021884A11800121864A117032E181
:103530000021864A11707A49097B012905D19FED46
:10354000840A734981ED050A13E07549097B022954
:1035500002D17C4A11700CE07149097B032902D128
:10356000784A117005E06E49097B11B90021754A4E
:10357000117010E16A49097B022903D00121714AC7
:1035800011700FE0714909780A2905DA6F49097845
:10359000491C6E4A117005E000216C4A117004212B
:1035A000684A1170F7E05E49097B032903D00121C5
:1035B000644A117014E0654909780A290ADA6349F6
:1035C0000978491C614A11700AE00AE0E2E025E04E
:1035D00041E065E000215D4A11700521594A1170F2
:1035E000D9E0B2EE040A4A4981ED050A9FED520A7C
:1035F00081ED060A5449098840F2DC52914206DA0C
:103600000178514A128811444F4A118005E0002187
:103610004D4A11800C214B4A1170BCE0B2EE040AF5
:103620003B4981ED050A9FED440A81ED060A4649B2
:10363000098840F2DC52914206DA0178424A128847
:103640001144414A118005E000213F4A11800D21BB
:103650003C4A11709FE0B3EE0E0A2D4981ED050A38
:103660009FED350A81ED060A9FED3A0A81ED070AC2
:1036700035490988B1F57A7F06DA0178324A12882D
:103680001144314A11800AE09FED2B0A204981ED57
:10369000070A00212C4A118014212A4A11707AE06D
:1036A000B3EE0E0A1A4981ED050A9FED230A81ED5A
:1036B000060A9FED290A81ED070A23490988B1F519
:1036C0007A7F06DA0178204A128811441E4A118056
:1036D0000AE09FED190A0E4981ED070A00211A4AF6
:1036E00011801421174A117055E00178164A12888A
:1036F0001144154A11801146098864292EDA01788F
:1037000012881144104A118043E00000B4000020E8
:1037100014140020B80000200AD7233C6F12833A0B
:103720003C310020A40000209A9919C0A800002074
:10373000CDCC4C3E9CC4A03F000000000401002002
:10374000AC020020B0000020BE000020BC00002021
:10375000000048420000B4C20000B4423F4909885A
:10376000B1F5167F0FDA01783C4A128811443B4AC2
:1037700011801FED090A3A4981ED050A1FED120A71
:1037800081ED060A05E00021344A11800121354A05
:10379000117000E000BF00BF704710B504460B4633
:1037A000CBB32F4890ED030ADFED2F0A20EE200A5D
:1037B000D0ED040A9FED2D1A01EE200A80ED060AD5
:1037C0002B48007B01282ED12948B0F90E00404239
:1037D00000EB4000400000EE100AB8EEC00A20489E
:1037E00080ED070A90ED070ADFED220AB4EEE00A49
:1037F000F1EE10FA02D89FED1F0A10E0184890ED84
:10380000070ADFED1D0AB4EEE00AF1EE10FA03DD5F
:103810009FED190A03E00FE0114890ED070A1048E8
:1038200080ED070A04E01FED3C0A0D4880ED070A11
:103830002046FFF753FE0FE01FED410A084880EDD8
:10384000050A1FED430A80ED060A1FED450A80EDCB
:10385000070A00200349087010BD0000BE000020C8
:1038600014140020B0000020CDCC4C3FCDCC4C3DFA
:103870003C3100200000C8C20000C84290ED002A80
:10388000DFEDFC2A22EE222AF7EE002A82EE823AAF
:10389000B7EE002A33EE022AB7EE003AC3EE022A50
:1038A000F54991ED002A30EE423A91ED002A02EE00
:1038B000832A81ED002A90ED002ADFEDEE2A22EE28
:1038C000222AF7EE002A82EE823AB7EE002A33EE81
:1038D000022AB7EE003AC3EE022A91ED012A30EE39
:1038E000C23A91ED012A02EE832A81ED012A91ED7F
:1038F000002ADFEDE22A22EE222AE14981ED002AA8
:10390000DD4991ED012ADFEDDD2A22EE222ADC4994
:1039100081ED012A90ED002ADFEDD62A62EE222AFF
:10392000B7EE003A83EE222AF7EE002A32EE222A80
:10393000B7EE003AC3EE022AD24991ED082A31EEE1
:10394000423A91ED082A02EE832A81ED082A90ED91
:10395000002ADFEDC82A22EE222AB7EE003AC3EE93
:10396000022AB7EE002A32EE822AB7EE003AC3EE00
:10397000022A91ED092A31EEC23A91ED092A02EEAE
:10398000832A81ED092A002117E0BE4A283202EB82
:10399000810292ED002ABB4A203202EB8102D2ED75
:1039A000002A90ED003A02EE832AB64A283202EB52
:1039B000810282ED002A4A1CD1B20229E5DB704760
:1039C00010B502460023B0480078B04C2478A042DD
:1039D0003FD0AE480078AC4C20708B78032003E0D9
:1039E0000C5C6340441CE0B20C28F9DB087B984275
:1039F00026D1A7480078401CA54C2070887A2072F8
:103A00002046007AF52803D00020A08060800DE0D9
:103A100008794C7940EA042000B29D4C6080887897
:103A2000CC7840EA042000B2994CA0808879CC7907
:103A300040EA04204FF47A7490FBF4F0944CE08058
:103A40009FED940A944880ED000A0120904C60702C
:103A500015E0914890ED000AF7EE000AB4EEE00A96
:103A6000F1EE10FA08D292ED000AD0ED000A30EE25
:103A7000200A80ED000A02E00020854C607010BD35
:103A800010B52DED020B85496846FFF799FF844874
:103A900090ED142AF0EE421A90ED132AB0EE421A7D
:103AA000804890ED0B2AF0EE420A90ED0A2AB0EE23
:103AB000420A6846FFF7E2FE1CBD002010E09FEDC1
:103AC000750A7049283101EB800181ED000A9FEDF4
:103AD000710A754901EB800181ED000A411CC8B2F1
:103AE0000228ECDB704770B52DED028B05460C46C5
:103AF000287800EE100AB8EE400ADFED6C0A20EEDE
:103B0000200AB0EE408A142C01DC142006E0B4F543
:103B1000FA7F02DD4FF4FA7000E0204600EE100A52
:103B2000B8EEC00A574880ED010A90ED020ADFEDB9
:103B3000600A20EE200AD0ED010A20EE200A80ED76
:103B4000040A90ED030ADFED5A0A20EE200AD0EDB8
:103B5000010A20EE200A80ED050A00F11802504902
:103B60003431103000F0C1FD4648007810B1012812
:103B70007DD10FE0012043490870B0EE000A4D48A6
:103B800080ED000AB7EE000A4B4880ED000AFFF70F
:103B900094FFAFE03E48007AF52869D100209CE010
:103BA0003849183101EB800191ED000A354928317F
:103BB00001EB8001D1ED000A30EE600A3F4901EBD4
:103BC000800181ED000A384901EB800191ED000A86
:103BD0003A4901EB8001D1ED000A374991ED001A15
:103BE00060EE810A00EE880A2F4901EB800181ED29
:103BF000000A2D4901EB800191ED000ADFED300A4A
:103C0000B4EEE00AF1EE10FA02D89FED2D0A13E0AF
:103C1000254901EB800191ED000ADFED2A0AB4EE9F
:103C2000E00AF1EE10FA02DD9FED260A04E01E49DB
:103C300001EB800191ED000A1B4901EB800181ED50
:103C4000000A194901EB800191ED000A1B4901EBC3
:103C50008001D1ED000A174991ED001A00EE810AAA
:103C60000849283101EB8001D1ED000A2CE03EE04B
:103C700036E000003433FB41DC000020E12E6542D9
:103C8000C400002040140020C00000203B0400209D
:103C90003414002000000000E40000205631002011
:103CA00004010020A4150020D40000206F12833AE4
:103CB00082A8FB38E8000020EC000020CC000020A7
:103CC0000000C8C20000C84240EE080A534901EB98
:103CD0008001C1ED000A411CC8B20228FFF660AFA6
:103CE0004E4A08324E494D4800F0E0FC02E0FFF732
:103CF000E4FE00BF00BFBDEC028B70BD0146494829
:103D0000007AF52812D01FED1D0A4448283880EDAE
:103D1000030A80ED020A4078052843DB3F48283833
:103D20004078401F3D4A283A50703BE03D48C088EB
:103D30004FF47A7292FBF0F03A4AB2F90220504303
:103D400000EE100AB8EEC00A3748D0ED010A9FED28
:103D5000371A01EE200A3148283880ED020A31482E
:103D6000C0884FF47A7292FBF0F02E4AB2F9042028
:103D7000504300EE100AB8EEC00A2B48D0ED000AFE
:103D80009FED2A1A01EE600A2448283880ED030AC4
:103D90004078FA2806DC214828384078401D1F4A20
:103DA000283A507070472248007C48B11B48283898
:103DB0000078012817D1002018492839087012E02E
:103DC000164828384078642804DA00201349283936
:103DD000087008E0114828384078C82803DD012021
:103DE0000E49283908700F48407830B111480078E2
:103DF00018B101201049087202E000200E49087233
:103E0000704701B5FFF7CFFF6846FFF777FF0B4814
:103E100001886846FFF767FE08BD000068140020AF
:103E20003801002034140020C4000020000020438A
:103E30002002002030040020BC14002032040020A6
:103E40000748C07A08B9012000E000200549087041
:103E500001204870704710B505F073FF10BD0000D9
:103E600088140020A603002090ED031AB5EEC01AB6
:103E7000F1EE10FA20DD90ED051AD0ED031AF1EE07
:103E8000611AB4EEE11AF1EE10FA04D890ED031ABB
:103E9000B1EE411A0DE090ED051AD0ED031AB4EE23
:103EA000E11AF1EE10FA02DD90ED031A01E090ED57
:103EB000051AF0EE410A01E0D0ED050A90ED001A76
:103EC00031EE201A80ED061A90ED011AD0ED061A97
:103ED00031EE611AD0ED021A21EE211A80ED041A9A
:103EE00090ED051AD0ED041A01EE801A80ED051A46
:103EF0007047D0ED000A90ED041A30EE811AD0ED33
:103F0000050A41EE000AC0ED050AD0ED010A90ED68
:103F1000051A70EEC10A90ED021A60EE810AC0ED3A
:103F2000040AD0ED030AF5EEC00AF1EE10FA1FDD27
:103F3000D0ED040A90ED031AB1EE411AF4EEC10A75
:103F4000F1EE10FA04D8D0ED030AF1EE600A0DE0AC
:103F5000D0ED040A90ED031AF4EEC10AF1EE10FA66
:103F600002DDD0ED030A01E0D0ED040AC0ED040A41
:103F70007047F0EE401A9FEDFC2A20EE822A22EED6
:103F8000212AB7EE003AC3EE022AB7EE002A32EE3B
:103F9000822AB7EE003AC3EE022A90ED002A31EEF3
:103FA000423A90ED002A02EE832A80ED002AB5EE17
:103FB000C01AF1EE10FA02DDB0EE412A01E0B1EED6
:103FC000412AB0EE420A90ED002AF1EE402AB4EE0A
:103FD000E22AF1EE10FA02D8B1EE402A0BE090EDA1
:103FE000002AB4EEC02AF1EE10FA02DDB0EE402A4B
:103FF00001E090ED002A80ED012A7047F0EE401AB2
:104000009FEDD92A20EE822A22EE212AB7EE003A2D
:10401000C3EE022AB7EE002A32EE822AB7EE003A49
:10402000C3EE022A90ED002A31EE423A90ED002ACA
:1040300002EE832A80ED002A90ED002AB5EEC02A18
:10404000F1EE10FA02DD90ED002A03E090ED002A77
:10405000B1EE422AB0EE420AB1EE402AB4EEC21AE4
:10406000F1EE10FA02D8B1EE402A09E0B4EEC01A1F
:10407000F1EE10FA02DDB0EE402A01E0B0EE412A86
:1040800080ED012A7047F0EE401A9FEDB72A20EE2E
:10409000822A22EE212AB7EE003AC3EE022AB7EEB8
:1040A000002A32EE822AB7EE003AC3EE022A90EDE1
:1040B000002A31EE423A90ED002A02EE832A80ED8A
:1040C000002AB5EEC01AF1EE10FA02DDB0EE412A78
:1040D00001E0B1EE412AB0EE420A90ED002AF1EE85
:1040E000402AB4EEE22AF1EE10FA02D8B1EE402AEC
:1040F0000BE090ED002AB4EEC02AF1EE10FA02DDDA
:10410000B0EE402A01E090ED002A80ED002A80ED1B
:10411000012A70472DE9F84F04460D46DDF8288046
:104120004FF001094FF0000A0126B346CDF800B068
:104130000127DFED8E0AB0EE600A00208446D2F837
:1041400008B0C2F80CB092F800B00BF1010B0BF004
:10415000FF0B82F800B0AB4502DB834682F800B06B
:1041600092F800B044F82B80D2F80CB0A8EB0B0BFF
:1041700000EE90BAB8EEE01A00EE903AF8EE600A5F
:10418000C1EE201AB0EE610AB5EEC00AF1EE10FAE7
:1041900002DDF0EE400A01E0F1EE400AB7EE001A4F
:1041A000F4EEC10AF1EE10FA2BD2B5EEC00AF1EE30
:1041B00010FA02DDB0EE401A01E0B1EE401A00EE56
:1041C000903AF8EE600A61EE200AB0EE001AF4EEC2
:1041D000C10AF1EE10FA04D2DFED640AB0EE600A13
:1041E0000FE0B5EEC00AF1EE10FA02DD4FF0010B60
:1041F00001E04FF0FF3B00EE90BAF8EEE00AB0EEBF
:10420000600AD06800BF00210DE054F821B0ABEB8C
:10421000000B54F821E0AEEB000E0BFB0ECC01F1CD
:10422000010B0FFA8BF1A942EFDBD2F804B0ACEB33
:104230000B0BBBF1000F11DDB9F1000F03D14FF0F3
:10424000000BCDF800B04FF00109012F02D14FF063
:10425000FF3B01E04FF0010B5F4607E04FF0000924
:104260009E4203DA06F1010B0BF0FF06C2F804C010
:104270004FF0000C00EE900AB8EEE01A00EE907AD3
:10428000F8EEE00A00EE801AFDEEC10A10EE900A88
:104290000AF1010B0BF0FF0BDA469B4502DDE3460A
:1042A000CDF800B0022E03DB4FF0000BCDF800B0CC
:1042B000DDF800B0BBF1010FA5D09060D2E902BEDD
:1042C000ABEB0E0BC2F810B0BDE8F88F70B5054629
:1042D0000C461678761CF6B21670A64201DB002654
:1042E0001670167805EB860686ED000A002009E0B8
:1042F00005EB800696ED001A03EB800686ED001AAA
:10430000461CF0B2A042F3DB002029E0002121E0AE
:1043100003EB810696ED001A4E1C03EB8606D6EDE4
:10432000001AB4EEE11AF1EE10FA11DD4E1C03EBA7
:104330008606D6ED000A03EB810696ED001A4E1CA8
:1043400003EB860686ED001A03EB8106C6ED000A34
:104350004E1CF1B2661E361A8E42D9DC461CF0B2F3
:10436000661E8642D2DC70BDC3F5C8400000000066
:1043700030B50C4615886D1CADB21580A54201DB29
:1043800000251580158800EB8505D5ED000A1588F8
:1043900000EB850585ED000A70EE601A01EE104A0B
:1043A000B8EE412A81EE821AD3ED001A31EE211ABD
:1043B00083ED001A93ED001AD3ED001A70EE611A26
:1043C000BFEE002AF4EEC21AF1EE10FA02D8FFEEA8
:1043D000001A11E0D3ED001A70EE611AB7EE002A50
:1043E000F4EEC21AF1EE10FA02DDF7EE001A03E065
:1043F000D3ED001A70EE611A9FEDA82A02EE211A81
:1044000083ED001A30BD5FED281A60EE211A21EE0F
:10441000A02AF7EE002AC2EE821AB7EE002A71EE49
:10442000821AF7EE002A82EEA12AD0ED001A71EE70
:10443000612AD0ED001A42EE221AC0ED001A704730
:1044400070B52DED0A8BB0EE408AF0EE608AB0EECA
:10445000419AF0EE619A044694ED001BB0EE410AD9
:10446000F0EE610A53EC102B51EC190B15F0E9FB3F
:1044700041EC1B0B1FED440A28EE000A20EE280A2F
:10448000B7EE001AC1EE000AB7EE000A30EE800A5D
:10449000F7EE000A80EE801A11EE105A284615F049
:1044A00078FC41EC1C0B53EC1B2B15F0D0FB41ECC2
:1044B0001A0B94ED001BB0EE410AF0EE610A53ECCA
:1044C000102B15F01DFBC4E90001BDEC0A8B70BD7B
:1044D00090ED001A30EEC11AB4EEC01AF1EE10FAE7
:1044E00006DD90ED001A31EE001A80ED001A13E09F
:1044F00090ED001A30EEC11AF1EE401AB4EEE11A56
:10450000F1EE10FA06D290ED001A31EE401A80ED6D
:10451000001A01E0C0ED000A7047B0EE402A1FED1E
:104520006E0A20EE800A20EE020AB7EE003AC3EED1
:10453000002AB7EE000A32EE800AB7EE003AC3EE68
:10454000002A90ED000A31EE403A90ED000A02EEAA
:10455000830A80ED000A90ED000AF1EE612AB4EEC4
:10456000E20AF1EE10FA02D8B1EE610A0BE090ED2A
:10457000000AB4EEE10AF1EE10FA02DDB0EE610AD3
:1045800001E090ED000A80ED000A90ED000A31EEA6
:10459000400A704770B504460D461646D4ED020A2F
:1045A00060EEA00A94ED011AD4ED011A41EE210A41
:1045B000B0EE600A00F038FF394880ED000AD4ED13
:1045C000020A60EEA00A94ED001AD4ED001A41EE42
:1045D000210AB0EE600A00F027FF324880ED000AA1
:1045E00094ED020AB5EEC00AF1EE10FA02D24FF0D5
:1045F000FF3000E001202C49087095ED000A2848A2
:10460000D0ED000A60EE200A94ED001A084690F9F9
:10461000000000EE100AB8EEC00A21EE000A95ED87
:10462000021A40EE410AC6ED000A084690F9000061
:1046300000EE100AB8EEC00A1A48D0ED000A20EECB
:10464000200AD5ED010A20EE200AD4ED010A95EDED
:10465000021A00EEC10A86ED010A94ED000AD5EDBA
:10466000000A20EE200AD4ED010A95ED011A00EEB1
:10467000810AD4ED020A95ED021A00EE810A86ED58
:10468000020A70BD70B504460D46164632462946EC
:104690002046FFF77FFF70BD70470000ACC527378D
:1046A000FC00002000010020F800002090ED000A2E
:1046B000D1ED000A20EE200AD0ED010A91ED011A99
:1046C00000EE810A82ED000A90ED000AD1ED010AA8
:1046D000F1EE600A20EE200AD0ED010A91ED001AF9
:1046E00000EE810A82ED010A704790ED000AD1EDDB
:1046F000000A20EE200AD0ED010A91ED011AB1EE78
:10470000411A00EE810A82ED000A90ED000AD1ED17
:10471000010A20EE200AD0ED010A91ED001A00EE08
:10472000810A82ED010A704730B502460B4600202F
:1047300022E0DFEDFE0AB0EE600A002114E000EB9B
:104740004004FB4D05EB840404EB810494ED001A56
:1047500002EB8104D4ED001AF0EE400A41EE810A2A
:10476000B0EE600A4C1CE1B20329E8DB03EB8001E8
:1047700081ED000A411CC8B20328DADB30BD2DE907
:10478000F0412DED068B86B0F0EE409A0546884646
:1047900017461E46129C94ED000AD4ED010A20EE45
:1047A000200AE44880ED000A94ED000AD4ED020AE4
:1047B00020EE200AE04880ED000A94ED010A20EE88
:1047C000000ADE4880ED000A94ED010AD4ED030AE8
:1047D00020EE200ADA4880ED000A94ED020A20EE6D
:1047E000000AD84880ED000A94ED020AD4ED030ACD
:1047F00020EE200AD44880ED000A94ED030A20EE52
:10480000000AD24880ED000A94ED010AD4ED020AB4
:1048100020EE200ACE4880ED000A94ED000AD4ED87
:10482000030A20EE200ACB4880ED000A287DE8B379
:1048300000203DE0002100EE101A00BF18E001EB5F
:104840004102BB4B03EB820202EB800292ED001AA5
:1048500004F17C0202EB8102D2ED001AF8EEC00AEC
:1048600041EE810AFDEEE00AB0EE600A4A1CD1B2C8
:104870000329E4DBF8EEC00A04F1880101EB8001B2
:10488000C1ED000A07EB8001D1ED000A04F18801B7
:1048900001EB800191ED001A70EEC10A04F1940160
:1048A00001EB8001C1ED000A411C00E003E0C8B249
:1048B0000328BFDB0FE000200BE007EB800191ED48
:1048C000000A04F1940101EB800181ED000A411C12
:1048D000C8B20328F1DBD4ED250A60EEA00A94EDFE
:1048E000261AD4ED261A41EE210A94ED271AD4EDAA
:1048F000271A41EE210AB0EE600A00F06FFDF0EEDB
:10490000408AF5EEC08AF1EE10FA02D19FED870AD7
:1049100003E0F7EE000A80EEA80AB0EE40AA0020FD
:104920000EE004F1940101EB800191ED000A20EE0C
:10493000280A03A901EB800181ED000A411CC8B2DD
:104940000328EEDB7F4890ED000AF0EE000A20EE2F
:10495000200A7E48D0ED000AB0EE001A01EE200ACF
:10496000F7EE000A30EEC00A84ED040A704880EDCC
:10497000000A774890ED000AF0EE000A20EE200AC7
:104980007448D0ED000AB0EE001A01EE600A84ED22
:10499000050A674880ED010A694890ED000AF0EECB
:1049A000000A20EE200A6448D0ED000AB0EE001A9A
:1049B00001EE200A84ED060A5D4880ED020A644893
:1049C00090ED000AF0EE000A20EE200A6148D0EDDA
:1049D000000AB0EE001A01EE200A84ED070A5448DE
:1049E00080ED030A554890ED000AF0EE000A20EE33
:1049F000200A5648D0ED000AB0EE001A01EE200A57
:104A0000F7EE000A30EEC00A84ED080A484880ED4F
:104A1000040A4D4890ED000AF0EE000A20EE200A4C
:104A20004448D0ED000AB0EE001A01EE600A84EDB1
:104A3000090A3F4880ED050A414890ED000AF0EE72
:104A4000000A20EE200A3C48D0ED000AB0EE001A21
:104A500001EE600A84ED0A0A354880ED060A3A48FC
:104A600090ED000AF0EE000A20EE200A3148D0ED69
:104A7000000AB0EE001A01EE200A84ED0B0A2C4861
:104A800080ED070A2D4890ED000AF0EE000A20EEB6
:104A9000200A2C48D0ED000AB0EE001A01EE200AE0
:104AA000F7EE000A30EEC00A84ED0C0A204880EDD3
:104AB000080AD0ED000A60EEA00A90ED031AD0EDCE
:104AC000031A41EE210AB0EE600A00F087FCB0EE56
:104AD000409A174890ED000A20EE090A84ED0D0A6D
:104AE00090ED030A20EE090A84ED0E0A002019E079
:104AF00007EB800191ED000A04F1280101EB800130
:104B0000D1ED000A9FED141A01EE600ABDEEC00A55
:104B1000B8EEC00A04F1400101EB800181ED000A0A
:104B2000411CC8B20328E3DB002041E00000000084
:104B3000C8140020EC010020F0010020F401002046
:104B4000F8010020FC0100200002002004020020E7
:104B5000080200200C02002000407544002100EEF5
:104B6000101A00BF18E000EB4002F84B03EB820282
:104B700002EB810292ED001A04F1400202EB810285
:104B8000D2ED001AF8EEC00A41EE810AFDEEE00A0D
:104B9000B0EE600A4A1CD1B20329E4DBF8EEC00A89
:104BA00004F14C0101EB8001C1ED000A411CC8B2C7
:104BB0000328D3DB04F15802E54904F14C00FFF768
:104BC00075FD9DED040AD4ED0C0A20EE200AD4ED0B
:104BD0000B0A9DED051A00EEC10ADE4880ED000AC1
:104BE0009DED030AD4ED0C0A20EE200AD4ED0A0A4A
:104BF0009DED051A10EE810A80ED010A9DED040A73
:104C0000D4ED0A0A20EE200AD4ED0B0A9DED031A1A
:104C100010EE810A80ED020A00200CE036F9101037
:104C200000EE101AB8EEC00ACB4901EB800181ED0D
:104C3000000A411CC8B20328F0DB308818B970881C
:104C400008B9B088E8B304F16401C348FFF76CFD0C
:104C5000D4ED190A60EEA00A94ED1A1AD4ED1A1ACE
:104C600041EE210AB0EE600A00F0B8FBF0EE40AA77
:104C700094ED190A20EE2A0AB84880ED020A94ED54
:104C80001A0A20EE2A0A80ED030A0146083000F0D5
:104C9000ADFEB34880ED000AB04901F1080000F014
:104CA000B2FEB04880ED000A90ED000AB5EEC00AF1
:104CB000F1EE10FA26D2AA4890ED000ADFEDAA0A1A
:104CC00000E020E0B4EEE00AF1EE10FA01DD012090
:104CD0000DE0A34890ED000ADFEDA40AB4EEE00A6F
:104CE000F1EE10FA02D24FF0FF3000E0002000EEAB
:104CF000100AB8EEC00AF7EE000A20EE200A984823
:104D000080ED000A00BF00207CE09FED990AB4EE20
:104D1000C0AAF1EE10FA06DC9FED960AB4EEC0AA26
:104D2000F1EE10FA08D21FED7F0A8A4981ED020ADE
:104D300081ED010A81ED000A8F4901EB800191EDBF
:104D4000000A844901EB8001D1ED000A9FED8B1A26
:104D5000F4EEC10AF1EE10FA02D8DFED880A13E092
:104D60007C4901EB8001D1ED000A9FED851AF4EE3C
:104D7000C10AF1EE10FA02DDDFED810A04E07549A7
:104D800001EB8001D1ED000A60EEA90A7D4991EDA9
:104D9000001A00EE810A784901EB800181ED000ADA
:104DA0006C4901EB800191ED000A734901EB800130
:104DB000D1ED000A70EE200A08EB800191ED000AA7
:104DC000714991ED001A00EE810A04F1280101EB0E
:104DD0008001D1ED000A624991ED001A60EE810A6E
:104DE0006A4991ED001A00EE810A20EE290AF0EEE0
:104DF000000A80EE201A694601EB800181ED001A5D
:104E0000411CC8B2032880DB94ED000AD4ED010AEE
:104E10009DED001A00EEC10AD4ED020A9DED011AC3
:104E200000EEC10AD4ED030A9DED021A00EEC10A9C
:104E300084ED000A94ED010AD4ED000A9DED001AFC
:104E400000EE810AD4ED020A9DED021A00EE810AFD
:104E5000D4ED030A9DED011A00EEC10A84ED010AAA
:104E600094ED000ADDED010A20EE200AD4ED010ADE
:104E70009DED021A00EEC10AD4ED020A30EE200ABE
:104E8000D4ED030A9DED001A00EE810A84ED020ABA
:104E900094ED000ADDED020A20EE200AD4ED010AAD
:104EA0009DED011A00EE810AD4ED020A9DED001A73
:104EB00000EEC10AD4ED030A30EE200A84ED030AA5
:104EC000D4ED000A60EEA00A94ED011AD4ED011AA7
:104ED00041EE210A94ED021AD4ED021A41EE210AA4
:104EE00094ED031AD4ED031A41EE210AB0EE600AE4
:104EF00000F074FAB0EE408AD4ED000AB0EE480A31
:104F000020EE800A84ED000AD4ED010AB0EE480AD2
:104F100020EE800A84ED010AD4ED020AB0EE480AC0
:104F200020EE800A84ED020AD4ED030AB0EE480AAE
:104F300020EE800A84ED030AE87C58BB9FED140A3A
:104F4000124880ED000A0020687451E0C814002067
:104F500038010020EC140020041500203802002045
:104F60001002002014020020BD378635BD3786B5FB
:104F70000080844400006144F8140020CDCCCCBDF6
:104F8000CDCCCC3D500200204C0200205402002029
:104F900000000000FFE7687C28B3B2EE040A9C48DA
:104FA00080ED000A9B4890ED000AB5EEC00AF1EED4
:104FB00010FA1DD090ED000AB5EEC00AF1EE10FA1D
:104FC00002DD90ED000A04E0924890ED000AB1EE97
:104FD000400ADFED910AB4EEE00AF1EE10FA07D2D2
:104FE0000020687404E095ED020A894880ED000A0B
:104FF000A87C28B91FED1A0A884880ED000A77E0DE
:10500000287C50B995ED000A844880ED000A95EDA2
:10501000010A834880ED000A6AE0B2EE040A7F4884
:1050200080ED000A1FED260A7D4880ED000A7D48CC
:1050300090ED000AB5EEC00AF1EE10FA02DD90ED37
:10504000000A04E0774890ED000AB1EE400A754886
:10505000D0ED010AF5EEC00AF1EE10FA02DDD0ED56
:10506000010A04E06F48D0ED010AF1EE600A30EE6B
:10507000200A6D4880ED000A90ED000AB5EEC00AE6
:10508000F1EE10FA02D81FED3E0A0FE0664890EDEF
:10509000000AF7EE000AB4EEE00AF1EE10FA02DDC3
:1050A000B7EE000A02E0604890ED000A5E4880ED2D
:1050B000000A90ED000ADFED5D0AB4EEE00AF1EEC1
:1050C00010FA12D2687C80B95948007868B1594802
:1050D0000088801C5749088008460088B0F5C87FC2
:1050E00006DD00200880287402E000205149088075
:1050F00006B0BDEC068BBDE8F08110B52DED028B3E
:105100004D48D0ED060A90ED061AB7EE000A00EE03
:10511000C10AB5EEC00AF1EE10FA02D81FED640A1A
:105120001BE04548D0ED060A90ED061AB7EE000ADE
:1051300000EEC10AF7EE000AB4EEE00AF1EE10FA52
:1051400002DDB7EE000A08E03B48D0ED060A90ED1C
:10515000061AB7EE000A00EEC10A384880ED000AD0
:10516000374890ED0C0AB5EEC00AF1EE10FA02DDF8
:1051700090ED0C0A04E0324890ED0C0AB1EE400AC2
:10518000DFED300AB4EEE00AF1EE10FA3CDD2B4818
:1051900090ED000A00F048F9B0EE408A2648D0EDC4
:1051A000060AB0EE600AF0EE480A00F05CF8DFEDA7
:1051B000260A20EE200A224880ED380A1E4890ED8B
:1051C000081AF0EE410A90ED071AB0EE410A00F01D
:1051D0004AF8DFED1D0A20EE200A194880ED370A53
:1051E000154890ED001AF0EE410A90ED031AB0EE6A
:1051F000410A00F038F8B1EE400ADFED130A20EE64
:10520000200A0F4880ED390ABDEC028B10BD00006A
:1052100054020020100200200AD7233C4C02002038
:1052200050020020EC140020180200200AD7A33CF2
:10523000403200201C020020C81400204802002038
:1052400004010020CDCC4C3D33336542F0EE400AE2
:10525000F5EEC00AF1EE10FA02DBB0EE600A70471C
:10526000B1EE600AFBE700B5B0EE403AB0EE602A5E
:10527000B5EEC03AF1EE10FA07D1B5EEC02AF1EE64
:1052800010FA02D19FEDFC1A99E0B0EE430AFFF745
:10529000DDFFF0EE403AB0EE420AFFF7D7FFF0EE46
:1052A000402AF4EEE23AF1EE10FA02D283EEA24A7C
:1052B00001E082EEA34A9FEDF10AB4EEC04AF1EE9E
:1052C00010FA02D2F0EE441A2DE0DFEDED0AB6EE50
:1052D000000A14EE200AF0EE404ABDEEE40A10EE99
:1052E000100A00EE100AB8EEC00A34EEC00AF0EE62
:1052F000404AE44901EB800191ED000AF0EE401ACA
:10530000E04A411C02EB810191ED000A114601EBDC
:105310008001D1ED000A70EE600AB0EE610A00EE85
:10532000A40AF0EE401AF4EEE32AF1EE10FA20DDC2
:10533000B5EEC02AF1EE10FA0ADBB5EEC03AF1EE96
:1053400010FA02DBB0EE611A39E0B1EE611A36E014
:105350009FEDCD1AB5EEC03AF1EE10FA04DB31EE56
:10536000610AB0EE401A2AE031EEC10AB0EE401AEE
:1053700025E0B5EEC03AF1EE10FA10DB9FEDC31A4E
:10538000B5EEC02AF1EE10FA04DB31EE610AB0EEA0
:10539000401A14E031EE210AB0EE401A0FE09FED02
:1053A000BC1AB5EEC02AF1EE10FA04DB31EE210A88
:1053B000B0EE401A03E031EE610AB0EE401AB0EEF2
:1053C000410A00BD00B5B0EE405AF0EE605AF0EE72
:1053D000450AB0EE650AFFF746FF00BDF0EE400A51
:1053E000F6EE001A60EEA11AB0EE611AB0EE600A95
:1053F00010EE100AA749A1EB600000EE100A21EEA2
:10540000002AF7EE081A42EE401A61EE801AB0EE5A
:10541000610A21EE002AF7EE081A42EE401A61EE08
:10542000801AB0EE610A704700B5F0EE402AB0EE87
:10543000620AFFF7D3FF20EE220A00BD10B52DED62
:105440000A8BB0EE409AF0EE609A9FED930B53EC0E
:10545000102B51EC190B14F0AFFC18D29FED900BF0
:1054600053EC102B51EC190B14F0F1FB41EC1B0B1E
:105470009FED8D0B53EC102B14F042FB41EC1A0BFB
:1054800053EC192B14F0E3FB41EC180B17E09FEDE4
:10549000840B53EC102B51EC190B14F0D8FB41EC9E
:1054A0001B0B9FED810B53EC102B14F0CDFB41EC4B
:1054B0001A0B53EC192B14F0CAFB41EC180B9FED9F
:1054C000760B53EC102B51EC180B14F075FC20D21A
:1054D0009FED770B53EC102B51EC180B14F010FBD5
:1054E00041EC1C0B9FED740B53EC102B14F0AFFB35
:1054F00041EC1B0B9FED6E0B53EC102B14F000FBDB
:1055000041EC1A0B53EC182B14F0A1FB41EC180BD7
:105510001FE09FED670B53EC102B51EC180B14F0B0
:1055200090FB41EC1C0B9FED660B53EC102B14F021
:105530008EFB41EC1B0B9FED5E0B53EC102B14F01C
:10554000DFFA41EC1A0B53EC182B14F080FB41EC02
:10555000180BB0EE480AF0EE680ABDEC0A8B10BDDD
:1055600010B52DED068BB0EE408AF0EE608A012476
:105570009FED550B53EC102B51EC180B14F034FC31
:105580000AD89FED510B53EC102B51EC180B14F073
:1055900058FB41EC180BA41E204614F0CAFB41EC4A
:1055A000190BB0EE480AF0EE680AFFF747FFB0EEBD
:1055B00040AAF0EE60AA53EC192B51EC1A0B14F030
:1055C00046FB41EC100BBDEC068B10BD10B52DED6C
:1055D000088BB0EE408AF0EE608A01249FED3C0B10
:1055E00053EC102B51EC180B14F08AFA41EC180B09
:1055F0009FED350B53EC102B51EC180B14F0F4FB12
:105600000AD8A41E9FED300B53EC102B51EC180B55
:1056100014F017FB41EC180B204614F08AFB41EC08
:105620001A0BB0EE480AF0EE680AFFF799FFB0EEE9
:1056300040BAF0EE60BA53EC1A2B51EC1B0B14F08D
:1056400006FB41EC190B14F0E7FB00EE100ABDEC71
:10565000088B10BDF0EE401AF4EEE01AF1EE10FAED
:105660003ADD31EEC10AB4EEE00AF1EE10FA3CD2B6
:10567000B0EE600A39E00000000000008180803B4D
:105680000000804300A20108DB0F4940DB0FC93F47
:10569000DB0FC9BFDF59375F0000000000000000CA
:1056A000000000602FF0D93F00000060305FF43F41
:1056B000000000000000F03F000000C0CCCCCCBFD8
:1056C000000000C0CCCCCC3FF1D4C853FB21094032
:1056D000F1D4C853FB21F93F31EE810AB4EEE00A60
:1056E000F1EE10FA01DDB0EE600A7047F0EE401AFC
:1056F000B1EE412A32EE202AB4EEE12AF1EE10FAA0
:1057000009D231EE202AB4EEE12AF1EE10FA02DDE0
:10571000B0EE600A01E0B0EE610A7047F0EE402A98
:10572000B5EEC01AF1EE10FA02DDB0EE410A01E06A
:10573000B1EE410AB6EE003A22EE033A23EE213AE8
:10574000B4EEC30AF1EE10FA06D29FEDE90A20EE9C
:10575000800AF0EE400A4DE0B5EEC01AF1EE10FA04
:1057600002DDB0EE410A01E0B1EE410A22EE213A3B
:10577000B4EEC30AF1EE10FA06D29FEDDE0A20EE77
:10578000800AF0EE400A35E0B5EEC01AF1EE10FAEC
:1057900002DDB0EE410A01E0B1EE410AB4EEE10AE9
:1057A000F1EE10FA06D2B6EE000A20EE800AF0EE14
:1057B000400A1FE0B5EEC01AF1EE10FA02DDB0EEBD
:1057C000410A01E0B1EE410AB0EE003A21EE833A1F
:1057D000B4EEC30AF1EE10FA06D29FEDC70A20EE2E
:1057E000800AF0EE400A05E09FEDC40A20EE800A30
:1057F000F0EE400A9FEDC20A20EE800A20EE223A27
:10580000F7EE003A83EE830AB7EE003A30EE030A71
:10581000F7EE003A83EE803A90ED000A71EE403ADE
:1058200090ED000A03EE230A80ED000A90ED000AD5
:10583000B1EE423A23EE213AB4EEC30AF1EE10FA89
:1058400004D8B1EE420A20EE210A0DE090ED000AE4
:1058500022EE213AB4EEC30AF1EE10FA02DD22EE96
:10586000210A01E090ED000A80ED000A90ED000AA7
:1058700031EE400A704710B52DED028BB0EE408A34
:10588000F0EE608A9FED9F0B53EC102B51EC180B40
:1058900014F0AAFA0CD29FED9D0B53EC102B51EC97
:1058A000180B14F0CEF941EC100BBDEC028B10BDBF
:1058B0009FED980B53EC102B51EC180B14F07CFA65
:1058C0000AD29FED920B53EC102B51EC180B14F0F5
:1058D00017F941EC100BE8E7B0EE480AF0EE680A61
:1058E000E3E710B504460B46F0EE403AD4ED000A6B
:1058F00060EEA00A93ED001AD3ED001A41EE210AE2
:10590000B0EE600AFFF790FDB0EE403AB5EEC03A57
:10591000F1EE10FA02D81FEDA80A09E0B4EEE33A5E
:10592000F1EE10FA02DDB0EE630A01E0B0EE430AD8
:10593000B0EE404AB5EEC03AF1EE10FA06D11FEDD6
:10594000B20A82ED010A82ED000A0FE084EE030A3A
:10595000D4ED000A20EE200A82ED000A84EE030A4C
:10596000D3ED000A20EE200A82ED010A10BDF0EE10
:10597000400A0B7802EB8303C3ED000A0B785B1C33
:105980000B700B78834201DB00230B700B7802EB6A
:10599000830393ED000A704700B50246B0EE403A2B
:1059A0000B46F7EE000A43EE430AB0EE600AFFF73B
:1059B0003BFDD2ED000A20EE200AD2ED010A00EEF6
:1059C000C30A83ED000AF7EE000A43EE430AB0EE85
:1059D000600AFFF729FDD2ED010A20EE200AD2ED80
:1059E000000A00EE830A83ED010A00BD90ED000A73
:1059F000D1ED010A20EE200AD0ED010A91ED001A46
:105A000000EEC10A704790ED000AD1ED000A20EEC9
:105A1000200AD0ED010A91ED011A00EE810A7047CB
:105A200090ED010AD1ED020A20EE200AD0ED020A23
:105A300091ED011A00EEC10A82ED000A90ED020A12
:105A4000D1ED000A20EE200AD0ED000A91ED021AF5
:105A500000EEC10A82ED010A90ED000AD1ED010AC3
:105A600020EE200AD0ED010A91ED001A00EEC10AE5
:105A700082ED020A704790ED000AD1ED000A20EE97
:105A8000200AD0ED010A91ED011A00EE810AD0ED55
:105A9000020A91ED021A00EE810A704730B5034602
:105AA0000C46002021E0DFED1D0AB0EE600A002167
:105AB00013E000EB400504EB850505EB810595ED52
:105AC000001A03EB8105D5ED001AF0EE400A41EE15
:105AD000810AB0EE600A4D1CE9B20329E9DB02EB52
