:020000040800F2
:10000000B83A0020D97801089D010008E37801087A
:100010009F010008A3010008A701000800000000DC
:10002000000000000000000000000000AB0100081C
:10003000AD01000800000000EF78010849AA00089F
:10004000F3780108F3780108F3780108F3780108E0
:10005000F3780108F3780108F3780108F3780108D0
:10006000F3780108F3780108F3780108F3780108C0
:10007000F3780108F3780108F3780108F3780108B0
:10008000F3780108F3780108F3780108F3780108A0
:10009000F3780108F3780108F3780108AF0100084C
:1000A000F3780108F3780108F3780108F378010880
:1000B000F3780108C1010008C9010008F3780108BC
:1000C000F3780108F3780108F3780108F378010860
:1000D000F3780108CB010008D3010008DB01000818
:1000E000F3780108F3780108F3780108F378010840
:1000F000F3780108F3780108F3780108F378010830
:10010000F3780108F3780108F3780108F37801081F
:10011000E3010008EB010008F3780108F378010817
:10012000F3780108F3780108F3780108F3780108FF
:10013000F3780108F3780108F3780108F3780108EF
:10014000F3780108F3780108F3780108DDC80008A6
:10015000F3780108F3780108F3780108F301000847
:10016000F3780108F3780108F3780108F3780108BF
:10017000F3780108F3780108F3780108F3780108AF
:10018000F3780108F3780108DFF80CD019F03AFA97
:1001900000480047ED030008B83A0020704700BF50
:1001A000FEE700BFFEE700BFFEE77047704710B5EF
:1001B000802011F02EF810B1802011F080F810BDD1
:1001C00010B50EF06AFA10BD704710B50DF028F9A1
:1001D00010BD10B50AF0BFFC10BD10B50AF08BFDC4
:1001E00010BD10B50AF043FE10BD10B50AF01FFF98
:1001F00010BD10B50EF0E7F910BD000010B517F0F6
:100200007DFB012017F085FB10BD70B50246002074
:1002100012E0145C594B1D881B885B1C574E3380C1
:10022000574B5C5533461B88B3F57A7F02D10023C8
:1002300034462380431CD8B28842EADB70BD10B537
:100240004E4800884F490988401A04B2002C02DA4F
:1002500004F57A7004B23F2C24DB00204A49087070
:100260003F204A490870002014E046490A8809885E
:10027000491C444B198042498A5C444B411C5A54E6
:1002800040490988B1F57A7F02D100213D4A1180A9
:10029000411CC8B23F28E8DB40223C49002018F04E
:1002A000B8FB34E038480078401C374908700846ED
:1002B000007837490978884229D1002032490870EE
:1002C00032490C7000BF1BE0A04213DA2D490A88A6
:1002D0000988491C2B4B198029498A5C2B4B411CEE
:1002E0005A5428490988B1F57A7F07D10021254A57
:1002F000118003E00022254B411C5A54411CC8B216
:100300003F28E1DB40222149002018F082FB10BD8C
:1003100010B50446012C02D0032C11D10EE059B9BE
:1003200023B1012B05D0022B04D100E000BF4020F7
:1003300010BD00BF00BF00BF00BF01E00120F7E714
:1003400000BF0020F4E72DE9F04706468846144632
:100350009946089F022E02D0032E0CD10AE00125F7
:1003600004E0605D01F0C6FE681CC5B22078A842BA
:10037000F7DA00E000BF00BFBDE8F087040000200E
:10038000B004002002000020060000209808002091
:100390000000002018F030BA70470020704700209D
:1003A00070470020704700207047002070470020F1
:1003B00070470020704700207047002070470020E1
:1003C00070470020704700207047002070470020D1
:1003D000704718F038BA7047002070470020704707
:1003E00018F07CB87047000000BFFEE700F0D8FDB1
:1003F0000349087000F0AFF801E000F0D2F8FCE724
:100400005814002010B57A484068794908600AF00D
:10041000CAFA774948607749C860754840687449A6
:100420000968401A7249886008F07AF8012004F0DF
:10043000C1FF012008F09AF808F0F8F80DF03EF836
:100440006D49012006F06EF9012006F0C2FB9FED18
:100450006B0A02F0B7FD01F054FE0AF0A4FA6549F8
:10046000086108460069C968401A6249486110BDC0
:1004700010B59FED630A05F034FF022007F03AFE45
:10048000022002F044FB10BD10B504F0D8F85A4821
:100490009FED5C0A05F052FC9FED5A0A0DF0B2FF89
:1004A00010BD10B50AF07FFA524908600A2002F028
:1004B000BBF80A2006F040FC0A2008F0C8F80A2021
:1004C0000DF01DF89FED500A05F04CFA9FED4E0A15
:1004D00005F050F99FED4C0A02F0F2F80A2008F0FE
:1004E00043FB0AF060FA43494860084640680968DF
:1004F000401A4049886010BD10B518F0EBFD14207B
:1005000008F07BF8142000F0C6F8142002F01BFF5E
:100510003949142006F079FD14200DF051FB10BD6F
:1005200010B5322007F0EEFE32200DF006F9374804
:10053000007E012802D10EF0C3F905E03348007EA9
:10054000022801D10EF0EFF910BD10B54FF4FA708A
:1005500008F0A2FE10BD002000BF1FE000EB40012C
:100560002B4A02EB810189884FF47A7292FBF1F1F8
:1005700000EB4002264B03EB8202D18000EB4001EE
:100580001A4602EB8101C988012905DA012100EB35
:10059000400203EB8202D180411CC8B20728DDD3A0
:1005A000704770B5002400BF1EE00AF037FA054618
:1005B00004EB4400164901EB80008068281A04EB24
:1005C0004401134A02EB8101C98888420AD304EB33
:1005D0004400114601EB8000856004EB440152F8B1
:1005E00021008047601CC4B2072CDED370BD000020
:1005F000F80B0020040C0020B81000206F12833A82
:100600006F12033B0AD7A33B0AD7233C58140020A0
:10061000140000200179C27801EB0221FE4A11800A
:100620008179427901EB0221FC4A11808178FC4AF0
:10063000517070470020FB49087000BF28E0032874
:1006400018DA9FEDF90AF6492C3101EB800181EDB2
:10065000000A9FEDF50AF249383101EB800181ED86
:10066000000A9FEDF10AEE49443101EB800181ED72
:10067000000A03E00021EA4AA2F850100022E849EB
:10068000143141F82020103941F82020411CC8B213
:100690000428D4DB704710B50446E14841788078DF
:1006A00081421FD0FFF7C6FFE04890F8380068B9D4
:1006B000DF48C07D012809D1DE48807810B9DD48C7
:1006C000407918B10120D64908700BE00020D449C8
:1006D0000870D9A30222AF21052001F06CFA002096
:1006E000CF494870CE48407806286ED006DC0628F0
:1006F0006CD2DFE800F06B10416CCEFD09287DD094
:1007000004DC07287BD0082860D1ADE20A2877D026
:10071000A028F9D14AE0C248007860B3C448C07C40
:1007200070B9C048007830BB0120BE490870C6A32C
:100730000222AF21052001F03EFA05F08AFF1AE0FF
:10074000BB48C07C022809D1C2A30222AF210520E8
:1007500001F031FA0020B24948700CE0B448C07C86
:10076000022808DDBFA30222AF21052001F023FAF1
:100770000020AB4948708EE3AD48C07C022808D108
:10078000BBA30222AF21052001F015FA05F070FF8E
:100790000BE0A748C07C40B9B8A30222AF210520D6
:1007A00001F009FA00209E49487074E3A048C07A1D
:1007B00050B1B5A30222AF21052001F0FCF90020C1
:1007C0009B4988729649487065E38FE162E39348DC
:1007D000008800EE100AB8EE400A914880ED0D0A3C
:1007E0008E48008898B38C4800884FF47A7148434B
:1007F00000EE100AF8EEC00A884802E093E2D5E164
:10080000ECE20088002802DC9FED870A17E0A3488D
:1008100090ED011A8148008800EE100AB8EE400AF7
:10082000B4EEC01AF1EE10FA03D29C4890ED010A22
:1008300005E07A48008800EE100AB8EE400A80EE23
:10084000801ABCEEC10A764880ED070A03E0FFE794
:1008500000217348C1617248C06830B990A3022278
:10086000AF21052001F0A7F90DE06D48C169C0680E
:10087000814208D28CA30222AF21052001F09BF90E
:100880000020674948706648C06801196448C16023
:1008900001E362480088404200EE100AB8EEC00A48
:1008A0005F4880ED0D0A5D480088A8B35A4800886B
:1008B0004FF47A71484300EE100AF8EEC00A574828
:1008C0000088002802DC9FED580A1DE0734890ED77
:1008D000020AB1EE401A5148008800EE100AB8EE44
:1008E000400AB4EEC01AF1EE10FA07D26B4800E0ED
:1008F00034E090ED020AB1EE400A05E04748008876
:1009000000EE100AB8EE400A80EE801ABCEEC10A72
:10091000434880ED070A03E0FFE700214048C1613A
:100920003F48C06830B963A30222AF21052001F01F
:1009300042F90DE03A48C169C068814208D260A31B
:100940000222AF21052001F036F900203449487019
:100950003348C06801193248C1609CE22F480088C2
:1009600000EE100AB8EE400A2D4880ED0B0A2B4825
:10097000008878B3284800884FF47A71484300EE25
:10098000100AF8EEC00A25480088002802DC9FED16
:10099000260A17E0414890ED001A2048008800EE32
:1009A000100AB8EE400AB4EEC01AF1EE10FA03D203
:1009B0003A4890ED000A05E01848008800EE100A59
:1009C000B8EE400A80EE801ABCEEC10A144880EDF1
:1009D000050A03E0FFE7002011494861104840681C
:1009E00030B93AA30222AF21052001F0E4F80EE06D
:1009F0000B4840690A494968884208D236A3022256
:100A0000AF21052001F0D7F80020054948700448BF
:100A100040682044024967E0680000206A00002026
:100A20001C0C00206C000020000000005031002051
:100A300058140020C00000204643205374617465A0
:100A4000204572726F72210054616B65206F66667B
:100A50002100000054616B65206F6666204F4B21BA
:100A600000000000434D44204572726F7221000067
:100A70004C616E64696E6721000000004C616E6419
:100A8000696E67204F4B2100456D657267656E6327
:100A9000792073746F70204F4B2100007C1400206C
:100AA000476F207570210000476F207570204F4BF5
:100AB00021000000476F20646F776E210000000066
:100AC000476F20646F776E204F4B2100476F206186
:100AD0006865616421000000476F2061686561649A
:100AE000204F4B21000000004860D4E1FC48008802
:100AF000404200EE100AB8EEC00AFA4880ED0B0A38
:100B0000F748008878B3F84800884FF47A71484372
:100B100000EE100AF8EEC00AF1480088002802DC56
:100B20001FED3F0A17E0F14890ED001AEC480088ED
:100B300000EE100AB8EE400AB4EEC01AF1EE10FA58
:100B400003D2EA4890ED000A05E0E548008800EE8F
:100B5000100AB8EE400A80EE801ABCEEC10AE148E5
:100B600080ED050A03E0FFE70020DE494861DD482B
:100B7000406830B9DEA30222AF21052001F01BF846
:100B80000EE0D8484069D7494968884208D2DBA3BB
:100B90000222AF21052001F00EF80020D149487053
:100BA000D04840682044CF49486074E1CC48008870
:100BB00000EE100AB8EE400ACA4880ED0C0AC84898
:100BC000008878B3C84800884FF47A71484300EE33
:100BD000100AF8EEC00AC2480088002802DC1FEDA7
:100BE0006E0A17E0C14890ED001ABD48008800EE7B
:100BF000100AB8EE400AB4EEC01AF1EE10FA03D2B1
:100C0000BA4890ED000A05E0B548008800EE100AE9
:100C1000B8EE400A80EE801ABCEEC10AB14880ED01
:100C2000060A03E0FFE70021AE488161AD48806815
:100C300030B9B5A30222AF21052000F0BCFF0DE0C2
:100C4000A84881698068814208D2B2A30222AF21FC
:100C5000052000F0B0FF0020A2494870A14880683C
:100C60000119A048816016E19D480088404200EECD
:100C7000100AB8EEC00A9B4880ED0C0A984800881C
:100C800078B3994800884FF47A71484300EE100A0F
:100C9000F8EEC00A92480088002802DC1FED9E0A88
:100CA00017E0924890ED001A8D48008800EE100A77
:100CB000B8EE400AB4EEC01AF1EE10FA03D28B4837
:100CC00090ED000A05E08648008800EE100AB8EEB4
:100CD000400A80EE801ABCEEC10A824880ED060A06
:100CE00003E0FFE700217F4881617E48806830B9DA
:100CF0008BA30222AF21052000F05DFF0DE07948B3
:100D000081698068814208D288A30222AF21052030
:100D100000F051FF00207349487072488068011943
:100D200070488160B7E06E48008800B26D49A1F854
:100D300050006B48008878B36B4800884FF47A7194
:100D4000484300EE100AF8EEC00A65480088002803
:100D500002DC1FEDCB0A17E0644890ED031A6048EF
:100D6000008800EE100AB8EE400AB4EEC01AF1EEA8
:100D700010FA03D25D4890ED030A05E05848008858
:100D800000EE100AB8EE400A80EE801ABCEEC10AEE
:100D9000544880ED080A03E0FFE700215148016252
:100DA0005048006930B965A30222AF21052000F048
:100DB00002FF0DE04B48016A0069814208D262A33C
:100DC0000222AF21052000F0F6FE002045494870C0
:100DD000444800690119434801615CE040480088CB
:100DE000404200B23F49A1F850003D48008878B326
:100DF0003D4800884FF47A71484300EE100AF8EE3F
:100E0000C00A37480088002802DC1FEDF90A17E005
:100E1000364890ED031A3248008800EE100AB8EE0A
:100E2000400AB4EEC01AF1EE10FA03D22F4890ED4A
:100E3000030A05E02A48008800EE100AB8EE400ACE
:100E400080EE801ABCEEC10A264880ED080A03E055
:100E5000FFE70021234801622248006930B93EA320
:100E60000222AF21052000F0A6FE0DE01D48016A18
:100E70000069814208D23BA30222AF21052000F085
:100E80009AFE002017494870164800690119154854
:100E9000016100E000BF00BF1248407808B9FFF7C9
:100EA000C9FB1048417881703248C07AB0B10D4A10
:100EB0003832A2F1140101F1080002F0B8FE094A2B
:100EC00044322D49A2F10C0002F092FE054890ED4B
:100ED0000D0A80ED100A80ED130A5BE04EE0000081
:100EE0006A0000201C0C0020680000207C140020F8
:100EF000476F206261636B2100000000476F206232
:100F000061636B204F4B2100476F206C6566742135
:100F100000000000476F206C656674204F4B210075
:100F2000476F20726967687421000000476F207264
:100F300069676874204F4B21000000005475726E81
:100F4000206C6566742100005475726E206C6566B5
:100F500074204F4B210000005475726E2072696737
:100F6000687421005475726E207269676874204F2E
:100F70004B2100005814002008010020064890ED85
:100F80000D0A064880ED090A034890ED0E0A034851
:100F900080ED0A0A10BD0000D40000201C0C0020C7
:100FA00010B54FF480600DF01DFD09F0CAFC6420FF
:100FB00009F022FD07F06AFC0AF0D8FC02F0EDF916
:100FC0000DF07EF809F0EAFA642009F015FD09F049
:100FD0004DFA0AF08FF80AF00FF90CF0A9FF2D492D
:100FE00048700870012088700AF044FB2949C870D5
:100FF000FFF704F9642009F0FFFC4FF4165009F0E4
:1010000037FD0A2009F0F8FC234809F0FFFD2248CB
:1010100009F0A6FF204809F0C9FE07F096FF6420FA
:1010200009F0EAFC05F0CAFA0CF013F8322009F0D6
:10103000E3FC0CF02BFB04F0B6F900F03DF8174987
:1010400091F81A01303117F019FF15A30222AF21D0
:10105000052000F0B0FD012010BD10B5044624B1FC
:101060000121134810F044FC03E00121104810F066
:101070000EFC10BD10B504462CB14FF480610D4834
:1010800010F036FC04E04FF480610A4810F0FFFBDA
:1010900010BD00008C14002020A10700441A00207D
:1010A00053595320696E6974204F4B210000000092
:1010B000000C0240000802400A21FE48A0F89E10E1
:1010C0001421A0F8A4100A21A0F8AA100021A0F869
:1010D000B0103221A0F8B610A0F8BC10A0F8C210D1
:1010E000A0F8C810C821A0F8E610A0F8EC10A0F8ED
:1010F000F8106421A0F810113221A0F81C11002072
:101100001BE000EB4002EB49903101EB42014A88C1
:1011100000EB4003E84901EB43014A8000EB400249
:10112000E449903101EB42018A8800EB4003E24937
:1011300001EB43018A80411CC8B21828E1DB7047EB
:1011400070B504460D46164604F0010018B131464C
:101150002846FFF75AF804F0040018B13146284633
:1011600009F095FF70BD3CB50246092A7ED008DC27
:10117000092A7CD2DFE802F07B18B3FDFCFBFAF908
:10118000F800302A74D008DC0D2A72D00E2A71D0F3
:101190000F2A70D0202A6AD1DAE2402A6CD0412A84
:1011A0006BD0F12AF7D1D4E2C44890ED1C0ABDEE11
:1011B000C00A10EE100A00B201909DF804300C78BD
:1011C000601C0870BE4803559DF805300C78601C03
:1011D0000870BB480355B94890ED1D0ABDEEC00A22
:1011E00010EE100A00B201909DF804300C78601CDB
:1011F0000870B34803559DF805300C78601C0870E2
:10120000AF480355AD4890ED1E0ABDEEC00A10EE82
:10121000100A00B201909DF804300C78601C087030
:10122000A74803559DF805300C78601C0870A44849
:101230000355A24890ED160ABDEEC00A10EE100A42
:1012400000B201909DF804300C78601C08709C4836
:1012500003559DF805300C78601C087098480355BC
:10126000964890ED170ABDEEC00A07E00EE294E240
:1012700050E20CE232E26AE25AE267E210EE100A51
:1012800000B201909DF804300C78601C08708C4806
:1012900003559DF805300C78601C0870884803558C
:1012A000864890ED180ABDEEC00A10EE100A00B292
:1012B00001909DF804300C78601C0870804803553C
:1012C0009DF805300C78601C08707D4803557B48FC
:1012D00003780C78601C0870794803555EE2794801
:1012E000408801909DF804300C78601C08707448A8
:1012F00003559DF805300C78601C08707048035544
:101300007048808801909DF804300C78601C08704B
:101310006B4803559DF805300C78601C08706848D0
:1013200003556848C08801909DF804300C78601C13
:101330000870634803559DF805300C78601C0870F0
:101340005F480355604890ED030ABDEEC00A8DED7D
:10135000000A9DF800300C78601C0870584803554E
:101360009DF801300C7805E053E10CE1ECE08FE0F2
:101370008DE034E0601C0870514803559DF8023040
:101380000C78601C08704E4803559DF803300C78AB
:10139000601C08704A480355484890ED1F0ABDEE8E
:1013A000C00A10EE100A00B201909DF804300C78CB
:1013B000601C0870424803559DF805300C78601C8D
:1013C00008703F48035500230C78601C08703C48A7
:1013D00003550C78601C087039480355DEE13B4822
:1013E00090ED370ADFED3A0A20EE200ABDEEC00A82
:1013F00010EE100A00B201909DF804300C78601CC9
:1014000008702F4803559DF805300C78601C087053
:101410002B4803552D4890ED380ADFED2D0A20EEBC
:10142000200ABDEEC00A10EE100A00B201909DF82D
:1014300004300C78601C0870214803559DF8053075
:101440000C78601C08701E480355204890ED390A3E
:10145000DFED1F0A20EE200ABDEEC00A10EE100AD2
:1014600000B201909DF804300C78601C087014489C
:1014700003559DF805300C78601C08701048035522
:1014800000230C78601C08700D48035586E185E147
:10149000104890ED050ABDEEC00A8DED000A9DF8DA
:1014A00000300C78601C0870054803559DF8013029
:1014B0000C7811E0700C0020900D002010320020FC
:1014C000200E0020D4020020702F0020D400002025
:1014D0000000C84220150020601C0870F848035521
:1014E0009DF802300C78601C0870F54803559DF893
:1014F00003300C78601C0870F1480355F1484088AF
:1015000000909DF800300C78601C0870EC48035582
:101510009DF801300C78601C0870E94803559DF86F
:1015200002300C78601C0870E54803559DF80330C4
:101530000C78601C0870E248035500230C78601C8E
:101540000870DF48035529E1DF48C37D0C78601C33
:101550000870DB480355DC48C37A0C78601C0870BF
:10156000D748035500230C78601C0870D4480355F5
:101570000C78601C0870D24803550C78601C087009
:10158000CF4803550AE1D14890ED030ABDEEC00AE9
:1015900010EE100A00B201909DF804300C78601C27
:1015A0000870C74803559DF805300C78601C08701A
:1015B000C3480355C54890ED040ABDEEC00A10EEBD
:1015C000100A00B201909DF804300C78601C08707D
:1015D000BB4803559DF805300C78601C0870B8486E
:1015E0000355BB4890ED050ABDEEC00A10EE100A87
:1015F00000B201909DF804300C78601C0870B0486F
:1016000003559DF805300C78601C0870AC480355F4
:10161000C4E0002000909DF800300C78601C087039
:10162000A74803559DF801300C78601C0870A44849
:1016300003559DF802300C78601C0870A0480355D3
:101640009DF803300C78601C08709D4803550020FD
:1016500000909DF800300C78601C08709848035585
:101660009DF801300C78601C0870954803559DF872
:1016700002300C78601C0870914803559DF80330C7
:101680000C78601C08708E48035587E086E091480E
:1016900090ED000A5FED720A20EE200ABDEEC00A4E
:1016A00010EE100A00B201909DF804300C78601C16
:1016B0000870834803559DF805300C78601C08704D
:1016C0007F48035500230C78601C08707C48035544
:1016D0000C78601C08707A4803555FE07E48837878
:1016E0000C78601C08707648035500230C78601C49
:1016F000087073480355784843790C78601C08706B
:101700006F4803557448C3780C78601C08706C48A7
:10171000035543E0002008E0704B1C5C0D786B1C07
:101720000B70674B5C55431CD8B21728F4DB35E0CF
:10173000002008E06A4B1C5C0D786B1C0B70604B42
:101740005C55431CD8B21428F4DB27E026E025E0E2
:1017500024E05D48808B01909DF804300C78601C7B
:101760000870574803559DF805300C78601C0870C8
:10177000534803555448008C00B201909DF8043042
:101780000C78601C08704E4803559DF805300C78A5
:10179000601C08704A48035500E000BF00BF3CBD14
:1017A0002DE9F84381460D46904600200090AA217D
:1017B0009DF80020501CC0B20090414881549DF813
:1017C0000010481CC0B200903D4800F80180182D60
:1017D00001DBBDE8F8834348465D9DF80010481CD6
:1017E000C0B200903648465400219DF80020501C9D
:1017F000C0B200903248815469463046FFF7B3FCCE
:101800009DF80000001F2E49C8700024002700200A
:1018100007E02B49095C2144CCB23919CFB2411CF5
:10182000C8B29DF800108842F3DB9DF80010481CF8
:10183000C0B20090224844549DF80010481CC0B229
:1018400000901F4847549DF8002001464846FFF786
:1018500077FC00BFBDE7F0B503460C4600212BE046
:1018600001EB410000EB81101F4D285C10BB01EB28
:10187000410000EB81102844437001EB410000EB74
:1018800081102844827000200AE0265C01EB4105AB
:1018900005EB8115144F3D44ED1C2E54451CE8B258
:1018A0009042F2DB012001EB410505EB81150E4E64
:1018B0007055F0BD481CC1B20529D1DB0020F8E706
:1018C000200E00207C02002058140020DC1900208B
:1018D00008150020FC020020C0000020D4300020A9
:1018E0008A31002010980108600E002070B5002495
:1018F00025E004EB440000EB8410F949085CE0B1FA
:1019000004EB440303EB84130D462B449A7804EB59
:10191000440303EB84132B44D91C04EB440303EB73
:1019200084132B445878FFF70BFC002004EB440190
:1019300001EB84112A46505470BD601CC4B2052CC2
:10194000D7DB00BFF8E770B50446012C04D0022CA9
:1019500014D0042C37D121E001EB4106E14D05EB19
:101960004605AA1C01EB4106DE4D05EB4605281D88
:1019700001EB4106DB4D05EB460325E001EB41059C
:10198000D94E06EB4505AA1C01EB410506EB4505C2
:10199000281D01EB410506EB450315E001EB41066F
:1019A000D04D903D05EB4605AA1C01EB4106CD4DFF
:1019B000903D05EB4605281D01EB4106C94D903DC4
:1019C00005EB460300E070BD00BF182900DBFAE715
:1019D000158855B105881688B54203DA05886D1C4F
:1019E000058002E001251D70058000BFEBE72DE9B1
:1019F000F04107460C46012F04D0022F09D0042FD6
:101A000016D10DE0AF2604EB4401B64800EB4105CA
:101A100011E0FF2604EB4400B34901EB40050AE066
:101A2000AF2604EB4401AF48903800EB410502E0DB
:101A30000020BDE8F08100BF182C01DB0020F8E792
:101A4000287840B100202870324621463846FFF7FA
:101A5000A7FE0120EDE70020EBE72DE9F05F8246CD
:101A60000E4617469846DDF828B00024AA222146E3
:101A7000641C9E4842542146641C46540022214660
:101A8000641C42542146641C42542146641C475441
:101A90002146641C00F801802146641C00F801B056
:101AA000201F9249C87000254FF00009002009E06E
:101AB0008E49095C2944CDB209EB050101F0FF090B
:101AC000411CC8B2A042F3DB2046611CCCB287495E
:101AD0000D542046611CCCB2844901F80090224686
:101AE0005046FFF7B8FEBDE8F09F2DE9F74181B001
:101AF00080460E4600200090BDF80C0007F005FC63
:101B000000900024AA222146641C784842542146B1
:101B1000641C4654E2222146641C425400222146A1
:101B2000641C42549DF80C202146641C42549DF8CC
:101B30000D202146641C42549DF800202146641C5F
:101B400042549DF801202146601CC4B267484254AB
:101B50009DF802202046611CCCB264490A549DF8CD
:101B600003202046611CCCB260490A54201FC87073
:101B700000250027002007E05C49095C2944CDB21C
:101B80007919CFB2411CC8B2A042F5DB2046611CD6
:101B9000CCB256490D542046611CCCB253490F5467
:101BA00022464046FFF757FEBDE8FF8100BF00BF59
:101BB00000BF00BF70472DE9F05F8346884691461D
:101BC0001E460024AA222146641C4848425421464D
:101BD000641C00F80180A0222146641C42540022AB
:101BE0002146641C42542146641C00F80190924630
:101BF0000CE05046411C01F0FF0A325C2046611C9B
:101C0000CCB23A490A54322C00DD03E016F80A003F
:101C10000028EED100BF201F3449C87000250027DE
:101C2000002007E03149095C2944CDB27919CFB2CF
:101C3000411CC8B2A042F5DB2046611CCCB22B4946
:101C40000D542046611CCCB228490F5422465846F8
:101C5000FFF701FEBDE8F09F2DE9F84380460C46F2
:101C6000154600260027E178A81F814201D0BDE873
:101C7000F883002006E0215C3144CEB2B919CFB21E
:101C8000411CC8B2A91E8142F5DC601910F8020C93
:101C9000B04204D1601910F8010CB84200D0E6E758
:101CA000A078402870D0A0784128FBD0A0783028B8
:101CB000F8D0A0783228F5D0A0783328F2D0A078D8
:101CC0003428EFD0A0780D28ECD0A078E02873D18C
:101CD000207901280CD0102865D011286DD199E009
:101CE000600E0020900D0020700C0020AF0F00202F
:101CF000607998BBA079012854D0A079022851D0EE
:101D0000A07903284ED0A07904284BD0A0790528CB
:101D100048D0A079102845D0A079612842D0A07978
:101D200062283FD0A079AA2804D107F06BF901F00E
:101D300029FB37E0A079AB2805D1012007F0FBF99A
:101D400001F020FB2EE0A079AC282BD107F05AF946
:101D5000022007F0F0F901F015FB23E0FFE76079BE
:101D6000012800D11EE0607930281BD1A07901281C
:101D70000BD1F948C07AA8B90120F8498870002031
:101D8000F74981F81A010DE06EE0A079022809D127
:101D9000F148C07A30B90220F24908700020F049B9
:101DA00081F81B0138E0607960BBA079072820D05A
:101DB0000ADC072824D201E037E02CE0DFE800F05D
:101DC0002013141516171800602816D006DC0828F2
:101DD00010D009280FD00A2812D10DE061280DD0AB
:101DE00062280DD10BE00CE00BE00AE009E008E00E
:101DF00007E006E005E004E003E002E001E000E0C7
:101E000000BF06E06079012803D06079022800D085
:101E100000BF01E000E000BF00BF0097A27833469A
:101E2000AF214046FFF719FE1EE0A078E0B1A07890
:101E3000E12805D1A288AF214046FFF756FE13E006
:101E4000A078E2280CD1D4F80610A08807F09FFDF6
:101E50000097A2783346AF214046FFF7FEFD03E02E
:101E6000A078602800D000BF00BF00E770B504462E
:101E70000D4604EB440000EB8410BB49084490F885
:101E80004200072875D2DFE800F00416374875CB0A
:101E9000F600AA2D0ED1012004EB440101EB8411C0
:101EA000B14A114481F8420004EB440000EB841075
:101EB00011460D5415E1052D03D0FF2D01D0052D40
:101EC00010D1022004EB440101EB8411A64A114415
:101ED00081F8420004EB440000EB841011460844F2
:101EE000457008E0002004EB440101EB84119E4A98
:101EF000114481F84200F4E0032004EB440101EBBB
:101F00008411994A114481F8420004EB440000EB2B
:101F10008410114608448570E3E03B2D1FDA04204D
:101F200004EB440101EB84118F4A114481F8420013
:101F300004EB440000EB841011460844C57004EB28
:101F4000440000EB8410084480F84050002004EB6B
:101F5000440101EB8411114481F8410008E00020A4
:101F600004EB440101EB84117F4A114481F84200E3
:101F7000B7E0ACE004EB440000EB84107A4908447D
:101F800090F84000002841DD04EB440000EB841091
:101F9000084490F84000401E04EB440101EB84111A
:101FA000714A114481F8400004EB440000EB8410B6
:101FB0001146084490F8410004EB440101EB841100
:101FC000114491F84110491C04EB440202EB8412C5
:101FD000654B1A4482F84110001D04EB440101EBEB
:101FE00084111A4611440D5404EB440000EB841094
:101FF0001146084490F8400088B9052004EB4401DC
:1020000001EB8411114481F8420008E0002004EB48
:10201000440101EB8411544A114481F8420060E00C
:10202000062004EB440101EB84114F4A114481F86E
:10203000420004EB440000EB84101146084490F881
:10204000410004EB440101EB8411114491F841106B
:10205000491C04EB440202EB8412434B1A4482F8FD
:102060004110001D04EB440101EB84111A46114498
:102070000D5436E0FFE7002004EB440101EB84112E
:10208000394A114481F8420004EB440000EB84100B
:102090001146014404EB440000EB8410104490F816
:1020A0004100001D0D5404EB440000EB8410114668
:1020B000084490F84100401DC6B204EB440000EB18
:1020C0008410811832462046FFF7C6FD09E0002043
:1020D00004EB440101EB8411234A114481F84200CE
:1020E00000BF00BF70BD10B5044621460420FFF7B5
:1020F000BDFE10BD10B5044621460120FFF7B6FE17
:1021000010BD10B5FFF7F2FB002409E021460420C2
:10211000FFF719FC21460120FFF715FC601CC4B233
:10212000182CF3DB002405E021460420FFF75FFCB8
:10213000601CC4B2182CF7DB002407E02146012004
:10214000FFF755FC00B103E0601CC4B2182CF5DBAE
:1021500000BFFEF774F810BD58140020980400204A
:10216000441A0020D4020020EF0F002070B5DDE9F2
:1021700004452BB10E882EB10E8806440E8001E076
:1021800001260E800E88964202DB2C7000260E80FF
:1021900070BD7CB50546FE480079022824DCFD4868
:1021A000407808BBFC484078B8B1FB480078A0B143
:1021B000F948C07850B1F648407818B10020F44989
:1021C000487214E00120F249487210E00120F349FE
:1021D00048720220EE49487209E00120EF49C871B7
:1021E0000320EB49487202E00420E9494872E848BC
:1021F000C07A002840D1E648807A002849D0E448D7
:10220000407A50B9E248807AE149C872E4A30222D8
:10221000AF210520FFF7CFFC3BE00020DC498872AE
:102220000846407A012806D1E0A30222AF2105200A
:10223000FFF7C1FC2DE0D648407A022806D1DBA387
:102240000222AF210520FFF7B6FC22E0D048407AF9
:10225000032806D1D5A30222AF210520FFF7ABFC4E
:1022600017E0CB48407A042813D1D4A30222AF212F
:102270000520FFF7A0FC0CE0C548807A28B9D5A35B
:102280000222AF210520FFF796FCC148807AC049A1
:10229000C872D548B0F9040010F5967F7EDAD248AE
:1022A000B0F90600002803DDCF48B0F9060003E0CE
:1022B000CD48B0F90600404200EE100AB8EEC00A60
:1022C000F3EE0E0AB4EEE00AF1EE10FA14DDC648A1
:1022D000B0F9020000EE100AB8EEC00AFBEE0E0ADA
:1022E000B4EEE00AF1EE10FA06D2A948407B30B90C
:1022F0000120A749487302E00020A5494873BA4865
:10230000B0F9020010F5967F12DAB748B0F9000074
:10231000B0F5967F0CDDB448B0F9060010F5967F55
:1023200006DA0120B14908700220994948731BE080
:10233000AD48B0F9020010F5967F12DAAA48B0F95C
:10234000000010F5967F0CDAA748B0F90600B0F54A
:10235000967F06DD0120A549087002208C4948734C
:1023600002E00020A149087000248948C07A28B101
:1023700000BF4FF496709E49088004E002244FF499
:10238000FA709B49088082480A30CDE9004097489E
:102390000378974802889749284600E002E0FFF753
:1023A000E5FE08E000207A4948730846807A022852
:1023B00001D1012088728C48B0F9040010F5AF7F7C
:1023C00003DD00207249087302E0012070490873A0
:1023D0007CBD002005E00021834A22F81010411C3A
:1023E000C8B20428F7DB8048B0F90400002802DDF9
:1023F00000207D49888000207B4908804880C88073
:102400006348C07A48B17C48407918B903206049D4
:10241000C87402E001205E49887101205F49C872DA
:102420007047F0B505AC70CC5CB100270F80CF7859
:102430008FB98F7817B18F787F1C8F700127CF707D
:1024400009E00027CF700F8807440F800F889F4254
:1024500001DD01278F708F78974202DD35700027EC
:102460008F70F0BD1EB504464948C07A00286ED171
:102470004748007B002873D05B48B0F9020010F594
:10248000AF7F17DA5848B0F90000B0F5AF7F11DD23
:102490005548B0F9040010F5AF7F0BDA5248B0F997
:1024A0000600B0F5AF7F05DD01205449087054499E
:1024B000087004E0002051490870514908704A48EA
:1024C000B0F90200B0F5AF7F15DD4748B0F9000064
:1024D000B0F5AF7F0FDD4448B0F9040010F5AF7FD1
:1024E00009DA4148B0F9060010F5AF7F03DA0120A0
:1024F0004449087002E00020424908703A48B0F9A7
:102500000200B0F5AF7F15DD3748B0F90000B0F537
:10251000AF7F0FDD3448B0F9040010F5AF7F09DA62
:102520003148B0F90600B0F5AF7F03DD0120364930
:10253000087002E00020344908702B48B0F902000E
:10254000B0F5AF7F04DD01203049087008E06AE093
:102550002548B0F90200322802DA00202B49087021
:102560002B480121CDE90010254803784FF47A72F9
:1025700028492046FFF7FAFD27480121234A12780F
:102580004FF47A73CDE9002102900522234947E0F8
:1025900058140020760300208C140020341A0020E8
:1025A000556E6C6F636B204F4B210000556E6C6F46
:1025B000636B204661696C2100000000506F7765F5
:1025C00072204C6F772C556E6C6F636B204661697F
:1025D0006C2100004643204F7574707574204C6F59
:1025E000636B656421200000B8100020700000209B
:1025F000720000206E000020C00000207F0000203C
:102600007E00002080000020810000208200002049
:102610009B04002074000020D40200207A000020D7
:102620002046FFF7FEFE1EBD10B504461F48007889
:1026300090B3002021E01E4931F81010A1F2DC51C6
:1026400009B21C4A22F81010114631F9101011F588
:10265000FA7F01DC18490BE0164931F91010B1F589
:10266000FA7F02DD4FF4FA7102E0124931F91010DD
:10267000104A22F81010411CC8B20828DBDB2046A3
:10268000FFF787FD2046FFF7EDFE09483A3890F83E
:10269000390010B1FFF79DFE06E00848C07A012816
:1026A00002D100200549C87210BD00005814002056
:1026B0008A310020B81000200CFEFFFF341A0020E1
:1026C00008B5CA48D0ED000A9FEDC91AF4EEC10A58
:1026D000F1EE10FA0BD2D0ED000AB7EE001A70EE50
:1026E000810AC0ED000A0120C249887002E0002082
:1026F000C0498870BD48D0ED010A9FEDBD1AF4EEC7
:10270000C10AF1EE10FA0BD2D0ED010AB7EE001AB1
:1027100070EE810AC0ED010A01208DF8000002E090
:1027200000208DF80000B148D0ED020A9FEDB01AEC
:10273000F4EEC10AF1EE10FA0BD2D0ED020AB7EEB8
:10274000001A70EE810AC0ED020A01208DF8010026
:1027500002E000208DF801009DF8000030B19DF8E6
:10276000010018B10120A349C87002E00020A1496E
:10277000C87008BD30B500220024C5788B1F9D426B
:1027800000D030BD002306E0C55C1544EAB2A518B0
:10279000ECB25D1CEBB28D1E9D42F5DC431813F8C4
:1027A000023C934204D1431813F8013CA34200D0E9
:1027B000E7E78378512B38D103795BB943798D4DA5
:1027C0006B7183795BB2AB71C3795BB2EB71037AE6
:1027D0002B7183E00379012B12D14379854D2B7244
:1027E000C3886B810389AB81837A2B719FED820A49
:1027F0007E4B83ED010A2B461B785B1C2B706DE032
:102800000379022B6AD143797A4DAB73C3882B824B
:1028100003896B824389AB828389EB82C3892B83D3
:10282000038A6B83837C2B7158E08378342B0DD122
:10283000D0F807306F4DEB619FED6F0A6B4B83ED66
:10284000020A2B465B785B1C6B7047E08378012B98
:102850000DD18388674D2B86C3886B860389AB8631
:102860004389EB8683892B87C3896B8736E083781E
:10287000042B33D1B0F9043000EE103AB8EEC00AA0
:10288000DFED5E0A20EE200A5A4B83ED080AB0F90C
:10289000063000EE103AB8EEC00ADFED580A20EE1E
:1028A000200A544B83ED090AB0F9083000EE103AC3
:1028B000B8EEC00ADFED510A20EE200A4D4B83ED41
:1028C0000A0AB0F90A3000EE103AB8EEC00ADFED9D
:1028D0004B0A20EE200A474B83ED0B0A00BF50E75E
:1028E00010B504464648007838B9AA2C05D1012015
:1028F000434908704348047077E041480078012854
:1029000009D1052C01D0FF2C05D102203C490870CB
:102910003C48447069E03A480078022805D1032019
:1029200037490870374884705FE0354800780328DD
:102930000CD1FA2C0ADA0420314908703148C470ED
:10294000314804700020314908704EE02C4800786E
:10295000042819D12C480078002815DD2A48007871
:10296000401E294908702948007828490978491CDF
:10297000264A1170001D23490C542348007880BB5F
:1029800005201F49087030E01D48007805280DD14A
:1029900006201B4908701D4800781C490978491C0D
:1029A0001A4A1170001D17490C541EE01448007893
:1029B000062817D100201249087014480078001D1D
:1029C00010490C549FED0C0A084880ED000A0120C4
:1029D0000F4908700D480078401DC1B20948FFF743
:1029E000C9FE02E000200649087010BD3811002021
:1029F0000000FA43C81000200000000017B7D138CB
:102A000085000020041100208300002084000020A5
:102A10006D000020AA49097839B9AA2805D10121F9
:102A2000A74A1170A749087070E0A54909780129E3
:102A300007D1302805D10221A14A1170A14948705F
:102A400064E09F490978022905D103219C4A11704D
:102A50009C4988705AE09A490978032905D10421D4
:102A6000974A11709749C87050E095490978042930
:102A70000AD10521924A1170924908719249087051
:102A80000521924A117041E08D490978052917D135
:102A90008D490978002913DD8B490978491E8A4A36
:102AA00011708A490A780978491C884B1970854940
:102AB00088548549097829BB0621814A117025E08F
:102AC0007F49097806291ED100217D4A11707D4970
:102AD0007E4A127888547E49097899B9002105E028
:102AE000784A525C7B4B5A544A1CD1B2774A1278CE
:102AF0009142F5DD75490978491C774A1170012129
:102B0000734A117002E000216D4A1170704701464E
:102B10006F48007800287DD000206D4B187000228F
:102B200000BF05E06B4B1B5C1344DAB2431CD8B208
:102B3000694B1B785B1E8342F4DC6648664B1B784E
:102B4000184410F8010C904200D070476148C078DA
:102B5000312875D05F48C078322871D15D48C0797E
:102B60005C4B9B7940EA032000B200EE100AB8EEFD
:102B7000C00AB1EE400ADFED590A80EE201A58482B
:102B800080ED041A5348407A524B1B7A40EA0320E6
:102B900000B200EE100AB8EEC00ADFED500A80EE77
:102BA000201A4F4880ED031A4A48C07A494B9B7A55
:102BB00040EA032000B200EE100AB8EEC00ADFEDD2
:102BC000470A80EE201A464880ED051A4148407BAE
:102BD000404B1B7B40EA032000B200EE100AB8EE27
:102BE000C00AB1EE400ADFED3D0A80EE201A3C48F3
:102BF00080ED071A3748C07B364B9B7B40EA0320A9
:102C000000B200EE100AB8EEC00ADFED340A80EE22
:102C1000201A00E018E0324880ED061A2D48407C6A
:102C20002C4B1B7C40EA032000B200EE100AB8EEE9
:102C3000C00ADFED2A0A80EE201A294880ED081A22
:102C40000020284B188000BF26480088B0F57A7F06
:102C500008DA244800880844224A10800120204ACB
:102C6000507002E000201E4A507000BF6DE710B5A2
:102C700004461D48C07A78B90020194908701B48DD
:102C800090ED0D0A084680ED010A184890ED0E0AF5
:102C9000084680ED020A02E0012011490870104A3E
:102CA0002432A2F1200101F1080000F0C0FF0C4A1B
:102CB0003032A2F12C0101F1140000F0B8FF10BD78
:102CC0008B000020801200208A0000208C00002051
:102CD0008700002080110020860000200000C842EC
:102CE000441100208800002058140020D400002047
:102CF00010B52DED028BF0EE408AB0EE608A2A48C6
:102D0000C0ED008A80ED018A02469FED280A011D70
:102D100002F089F8BDEC028B10BD234880ED060A55
:102D2000D0ED060A9FED221AF4EEC10AF1EE10FA78
:102D300002D8DFED1F0A0FE01B48D0ED060A9FED19
:102D40001D1AF4EEC10AF1EE10FA02DDDFED190AE8
:102D500002E01548D0ED060A1348C0ED060A704798
:102D6000114880ED070AD0ED070A9FED131AF4EE23
:102D7000C10AF1EE10FA02D8DFED0F0A0FE00A489F
:102D8000D0ED070A9FED0D1AF4EEC10AF1EE10FA2C
:102D900002DDDFED0A0A02E00348D0ED070A02482F
:102DA000C0ED070A70470000801300200000484370
:102DB000000016C3000016430000C8C20000C8424D
:102DC00090ED002ADFEDFC2A22EE222AF7EE002AFF
:102DD00082EE823AB7EE002A33EE022AB7EE003ACC
:102DE000C3EE022AF54991ED002A30EE423A91ED08
:102DF000002A02EE832A81ED002A90ED002ADFED01
:102E0000EE2A22EE222AF7EE002A82EE823AB7EE6E
:102E1000002A33EE022AB7EE003AC3EE022A91ED01
:102E2000012A30EEC23A91ED012A02EE832A81EDA9
:102E3000012A91ED002ADFEDE22A22EE222AE14961
:102E400081ED002ADD4991ED012ADFEDDD2A22EE38
:102E5000222ADC4981ED012A90ED002ADFEDD62AF5
:102E600062EE222AB7EE003A83EE222AF7EE002A1B
:102E700032EE222AB7EE003AC3EE022AD24991ED91
:102E8000082A31EE423A91ED082A02EE832A81EDBA
:102E9000082A90ED002ADFEDC82A22EE222AB7EE9A
:102EA000003AC3EE022AB7EE002A32EE822AB7EECB
:102EB000003AC3EE022A91ED092A31EEC23A91EDB1
:102EC000092A02EE832A81ED092A002117E0BE4A71
:102ED000283202EB810292ED002ABB4A203202EB3B
:102EE0008102D2ED002A90ED003A02EE832AB64A22
:102EF000283202EB810282ED002A4A1CD1B202295B
:102F0000E5DB704710B502460023B0480078B04CAE
:102F10002478A0423FD0AE480078AC4C20708B782B
:102F2000032003E00C5C6340441CE0B20C28F9DB96
:102F3000087B984226D1A7480078401CA54C2070F9
:102F4000887A20722046007AF52803D00020A080DD
:102F500060800DE008794C7940EA042000B29D4C75
:102F600060808878CC7840EA042000B2994CA08038
:102F70008879CC7940EA04204FF47A7490FBF4F01D
:102F8000944CE0809FED940A944880ED000A012063
:102F9000904C607015E0914890ED000AF7EE000A41
:102FA000B4EEE00AF1EE10FA08D292ED000AD0ED8C
:102FB000000A30EE200A80ED000A02E00020854C75
:102FC000607010BD10B52DED020B85496846FFF706
:102FD00099FF844890ED142AF0EE421A90ED132ADE
:102FE000B0EE421A804890ED0B2AF0EE420A90EDC6
:102FF0000A2AB0EE420A6846FFF7E2FE1CBD002036
:1030000010E09FED750A7049283101EB800181EDD8
:10301000000A9FED710A754901EB800181ED000AFC
:10302000411CC8B20228ECDB704770B52DED028B55
:1030300005460C46287800EE100AB8EE400ADFED8F
:103040006C0A20EE200AB0EE408A142C01DC142019
:1030500006E0B4F5FA7F02DD4FF4FA7000E0204696
:1030600000EE100AB8EEC00A574880ED010A90ED54
:10307000020ADFED600A20EE200AD0ED010A20EE00
:10308000200A80ED040A90ED030ADFED5A0A20EED3
:10309000200AD0ED010A20EE200A80ED050A00F199
:1030A000180250493431103000F0C1FD4648007814
:1030B00010B101287DD10FE0012043490870B0EE26
:1030C000000A4D4880ED000AB7EE000A4B4880ED3B
:1030D000000AFFF794FFAFE03E48007AF52869D177
:1030E00000209CE03849183101EB800191ED000A85
:1030F0003549283101EB8001D1ED000A30EE600A3C
:103100003F4901EB800181ED000A384901EB800164
:1031100091ED000A3A4901EB8001D1ED000A3749EF
:1031200091ED001A60EE810A00EE880A2F4901EB4A
:10313000800181ED000A2D4901EB800191ED000A2B
:10314000DFED300AB4EEE00AF1EE10FA02D89FED9E
:103150002D0A13E0254901EB800191ED000ADFED16
:103160002A0AB4EEE00AF1EE10FA02DD9FED260A1B
:1031700004E01E4901EB800191ED000A1B4901EBBF
:10318000800181ED000A194901EB800191ED000AEF
:103190001B4901EB8001D1ED000A174991ED001A9E
:1031A00000EE810A0849283101EB8001D1ED000AC7
:1031B0002CE03EE036E000003433FB41AC00002060
:1031C000E12E6542940000201014002090000020A1
:1031D0000B0400200414002000000000B4000020B4
:1031E00026310020D400002074150020A400002007
:1031F0006F12833A82A8FB38B8000020BC00002080
:103200009C0000200000C8C20000C84240EE080A2E
:10321000534901EB8001C1ED000A411CC8B20228EC
:10322000FFF660AF4E4A08324E494D4800F0E0FCD0
:1032300002E0FFF7E4FE00BF00BFBDEC028B70BDF3
:1032400001464948007AF52812D01FED1D0A44486E
:10325000283880ED030A80ED020A4078052843DB18
:103260003F4828384078401F3D4A283A50703BE09C
:103270003D48C0884FF47A7292FBF0F03A4AB2F9B6
:103280000220504300EE100AB8EEC00A3748D0EDD5
:10329000010A9FED371A01EE200A3148283880EDE7
:1032A000020A3148C0884FF47A7292FBF0F02E4A3D
:1032B000B2F90420504300EE100AB8EEC00A2B48C1
:1032C000D0ED000A9FED2A1A01EE600A2448283842
:1032D00080ED030A4078FA2806DC21482838407837
:1032E000401D1F4A283A507070472248007C48B160
:1032F0001B4828380078012817D1002018492839A0
:10330000087012E0164828384078642804DA002053
:1033100013492839087008E0114828384078C8282F
:1033200003DD01200E49283908700F48407830B17C
:103330001148007818B101201049087202E00020FD
:103340000E490872704701B5FFF7CFFF6846FFF7D7
:1033500077FF0B4801886846FFF767FE08BD00004D
:1033600038140020080100200414002094000020DC
:1033700000002043F0010020000400208C140020F5
:10338000020400200748C07A08B9012000E00020AC
:103390000549087001204870704710B505F069FFB5
:1033A00010BD0000581400207603002090ED031A91
:1033B000B5EEC01AF1EE10FA20DD90ED051AD0ED51
:1033C000031AF1EE611AB4EEE11AF1EE10FA04D824
:1033D00090ED031AB1EE411A0DE090ED051AD0ED13
:1033E000031AB4EEE11AF1EE10FA02DD90ED031AC1
:1033F00001E090ED051AF0EE410A01E0D0ED050A7A
:1034000090ED001A31EE201A80ED061A90ED011AA7
:10341000D0ED061A31EE611AD0ED021A21EE211A12
:1034200080ED041A90ED051AD0ED041A01EE801A11
:1034300080ED051A7047D0ED000A90ED041A30EEC9
:10344000811AD0ED050A41EE000AC0ED050AD0ED63
:10345000010A90ED051A70EEC10A90ED021A60EEB5
:10346000810AC0ED040AD0ED030AF5EEC00AF1EEC0
:1034700010FA1FDDD0ED040A90ED031AB1EE411AE7
:10348000F4EEC10AF1EE10FA04D8D0ED030AF1EE21
:10349000600A0DE0D0ED040A90ED031AF4EEC10AC3
:1034A000F1EE10FA02DDD0ED030A01E0D0ED040ADE
:1034B000C0ED040A7047F0EE401A9FEDFC2A20EEA2
:1034C000822A22EE212AB7EE003AC3EE022AB7EE94
:1034D000002A32EE822AB7EE003AC3EE022A90EDBD
:1034E000002A31EE423A90ED002A02EE832A80ED66
:1034F000002AB5EEC01AF1EE10FA02DDB0EE412A54
:1035000001E0B1EE412AB0EE420A90ED002AF1EE60
:10351000402AB4EEE22AF1EE10FA02D8B1EE402AC7
:103520000BE090ED002AB4EEC02AF1EE10FA02DDB5
:10353000B0EE402A01E090ED002A80ED012A7047AC
:10354000F0EE401A9FEDD92A20EE822A22EE212A9F
:10355000B7EE003AC3EE022AB7EE002A32EE822A14
:10356000B7EE003AC3EE022A90ED002A31EE423A5D
:1035700090ED002A02EE832A80ED002A90ED002AC9
:10358000B5EEC02AF1EE10FA02DD90ED002A03E05C
:1035900090ED002AB1EE422AB0EE420AB1EE402A86
:1035A000B4EEC21AF1EE10FA02D8B1EE402A09E0E8
:1035B000B4EEC01AF1EE10FA02DDB0EE402A01E0DE
:1035C000B0EE412A80ED012A7047F0EE401A9FEDDF
:1035D000B72A20EE822A22EE212AB7EE003AC3EE65
:1035E000022AB7EE002A32EE822AB7EE003AC3EE84
:1035F000022A90ED002A31EE423A90ED002A02EEC6
:10360000832A80ED002AB5EEC01AF1EE10FA02DD31
:10361000B0EE412A01E0B1EE412AB0EE420A90ED4F
:10362000002AF1EE402AB4EEE22AF1EE10FA02D8B6
:10363000B1EE402A0BE090ED002AB4EEC02AF1EE84
:1036400010FA02DDB0EE402A01E090ED002A80ED94
:10365000002A80ED012A70472DE9F84F04460D46F7
:10366000DDF828804FF001094FF0000A0126B3462B
:10367000CDF800B00127DFED8E0AB0EE600A002021
:103680008446D2F808B0C2F80CB092F800B00BF142
:10369000010B0BF0FF0B82F800B0AB4502DB834659
:1036A00082F800B092F800B044F82B80D2F80CB049
:1036B000A8EB0B0B00EE90BAB8EEE01A00EE903AD1
:1036C000F8EE600AC1EE201AB0EE610AB5EEC00A4B
:1036D000F1EE10FA02DDF0EE400A01E0F1EE400AF0
:1036E000B7EE001AF4EEC10AF1EE10FA2BD2B5EEE5
:1036F000C00AF1EE10FA02DDB0EE401A01E0B1EEC0
:10370000401A00EE903AF8EE600A61EE200AB0EE40
:10371000001AF4EEC10AF1EE10FA04D2DFED640AE9
:10372000B0EE600A0FE0B5EEC00AF1EE10FA02DD6D
:103730004FF0010B01E04FF0FF3B00EE90BAF8EEC6
:10374000E00AB0EE600AD06800BF00210DE054F836
:1037500021B0ABEB000B54F821E0AEEB000E0BFBFD
:103760000ECC01F1010B0FFA8BF1A942EFDBD2F87D
:1037700004B0ACEB0B0BBBF1000F11DDB9F1000F86
:1037800003D14FF0000BCDF800B04FF00109012F2D
:1037900002D14FF0FF3B01E04FF0010B5F4607E025
:1037A0004FF000099E4203DA06F1010B0BF0FF0611
:1037B000C2F804C04FF0000C00EE900AB8EEE01A18
:1037C00000EE907AF8EEE00A00EE801AFDEEC10AF3
:1037D00010EE900A0AF1010B0BF0FF0BDA469B4545
:1037E00002DDE346CDF800B0022E03DB4FF0000B04
:1037F000CDF800B0DDF800B0BBF1010FA5D09060AE
:10380000D2E902BEABEB0E0BC2F810B0BDE8F88FE8
:1038100070B505460C461678761CF6B21670A642B0
:1038200001DB00261670167805EB860686ED000A89
:10383000002009E005EB800696ED001A03EB8006F8
:1038400086ED001A461CF0B2A042F3DB002029E00E
:10385000002121E003EB810696ED001A4E1C03EBDC
:103860008606D6ED001AB4EEE11AF1EE10FA11DD7B
:103870004E1C03EB8606D6ED000A03EB810696ED9F
:10388000001A4E1C03EB860686ED001A03EB810638
:10389000C6ED000A4E1CF1B2661E361A8E42D9DC05
:1038A000461CF0B2661E8642D2DC70BDC3F5C8402D
:1038B0000000000030B50C4615886D1CADB21580B7
:1038C000A54201DB00251580158800EB8505D5EDA7
:1038D000000A158800EB850585ED000A70EE601A78
:1038E00001EE104AB8EE412A81EE821AD3ED001A99
:1038F00031EE211A83ED001A93ED001AD3ED001A70
:1039000070EE611ABFEE002AF4EEC21AF1EE10FA60
:1039100002D8FFEE001A11E0D3ED001A70EE611A22
:10392000B7EE002AF4EEC21AF1EE10FA02DDF7EE5D
:10393000001A03E0D3ED001A70EE611A9FEDA82A79
:1039400002EE211A83ED001A30BD5FED281A60EEF9
:10395000211A21EEA02AF7EE002AC2EE821AB7EE53
:10396000002A71EE821AF7EE002A82EEA12AD0ED2B
:10397000001A71EE612AD0ED001A42EE221AC0ED53
:10398000001A704770B52DED0A8BB0EE408AF0EE4C
:10399000608AB0EE419AF0EE619A044694ED001B05
:1039A000B0EE410AF0EE610A53EC102B51EC190B0A
:1039B00015F05BFC41EC1B0B1FED440A28EE000ADE
:1039C00020EE280AB7EE001AC1EE000AB7EE000A90
:1039D00030EE800AF7EE000A80EE801A11EE105ADF
:1039E000284615F0EAFC41EC1C0B53EC1B2B15F0A0
:1039F00042FC41EC1A0B94ED001BB0EE410AF0EED4
:103A0000610A53EC102B15F08FFBC4E90001BDECEB
:103A10000A8B70BD90ED001A30EEC11AB4EEC01AD8
:103A2000F1EE10FA06DD90ED001A31EE001A80ED8D
:103A3000001A13E090ED001A30EEC11AF1EE401AB0
:103A4000B4EEE11AF1EE10FA06D290ED001A31EE62
:103A5000401A80ED001A01E0C0ED000A7047B0EE98
:103A6000402A1FED6E0A20EE800A20EE020AB7EE11
:103A7000003AC3EE002AB7EE000A32EE800AB7EE33
:103A8000003AC3EE002A90ED000A31EE403A90ED84
:103A9000000A02EE830A80ED000A90ED000AF1EEC2
:103AA000612AB4EEE20AF1EE10FA02D8B1EE610A30
:103AB0000BE090ED000AB4EEE10AF1EE10FA02DD3F
:103AC000B0EE610A01E090ED000A80ED000A90ED91
:103AD000000A31EE400A704770B504460D4616469E
:103AE000D4ED020A60EEA00A94ED011AD4ED011A99
:103AF00041EE210AB0EE600A00F038FF394880ED4F
:103B0000000AD4ED020A60EEA00A94ED001AD4ED8A
:103B1000001A41EE210AB0EE600A00F027FF324899
:103B200080ED000A94ED020AB5EEC00AF1EE10FA3B
:103B300002D24FF0FF3000E001202C49087095EDD3
:103B4000000A2848D0ED000A60EE200A94ED001A21
:103B5000084690F9000000EE100AB8EEC00A21EE07
:103B6000000A95ED021A40EE410AC6ED000A084629
:103B700090F9000000EE100AB8EEC00A1A48D0ED25
:103B8000000A20EE200AD5ED010A20EE200AD4ED2D
:103B9000010A95ED021A00EEC10A86ED010A94EDC4
:103BA000000AD5ED000A20EE200AD4ED010A95EDB9
:103BB000011A00EE810AD4ED020A95ED021A00EE18
:103BC000810A86ED020A70BD70B504460D461646A0
:103BD000324629462046FFF77FFF70BD7047000040
:103BE000ACC52737CC000020D0000020C800002042
:103BF00090ED000AD1ED000A20EE200AD0ED010A76
:103C000091ED011A00EE810A82ED000A90ED000AA2
:103C1000D1ED010AF1EE600A20EE200AD0ED010A92
:103C200091ED001A00EE810A82ED010A704790EDD5
:103C3000000AD1ED000A20EE200AD0ED010A91ED34
:103C4000011AB1EE411A00EE810A82ED000A90EDF0
:103C5000000AD1ED010A20EE200AD0ED010A91ED13
:103C6000001A00EE810A82ED010A704730B5024663
:103C70000B46002022E0DFEDFE0AB0EE600A0021D4
:103C800014E000EB4004FB4D05EB840404EB8104DD
:103C900094ED001A02EB8104D4ED001AF0EE400A14
:103CA00041EE810AB0EE600A4C1CE1B20329E8DB68
:103CB00003EB800181ED000A411CC8B20328DADB66
:103CC00030BD2DE9F0412DED068B86B0F0EE409A27
:103CD0000546884617461E46129C94ED000AD4ED10
:103CE000010A20EE200AE44880ED000A94ED000A63
:103CF000D4ED020A20EE200AE04880ED000A94ED9F
:103D0000010A20EE000ADE4880ED000A94ED010A67
:103D1000D4ED030A20EE200ADA4880ED000A94ED83
:103D2000020A20EE000AD84880ED000A94ED020A4B
:103D3000D4ED030A20EE200AD44880ED000A94ED69
:103D4000030A20EE000AD24880ED000A94ED010A31
:103D5000D4ED020A20EE200ACE4880ED000A94ED50
:103D6000000AD4ED030A20EE200ACB4880ED000AB9
:103D7000287DE8B300203DE0002100EE101A00BFCE
:103D800018E001EB4102BB4B03EB820202EB800225
:103D900092ED001A04F17C0202EB8102D2ED001ACE
:103DA000F8EEC00A41EE810AFDEEE00AB0EE600ACC
:103DB0004A1CD1B20329E4DBF8EEC00A04F1880101
:103DC00001EB8001C1ED000A07EB8001D1ED000A93
:103DD00004F1880101EB800191ED001A70EEC10A37
:103DE00004F1940101EB8001C1ED000A411C00E0E7
:103DF00003E0C8B20328BFDB0FE000200BE007EBB5
:103E0000800191ED000A04F1940101EB800181ED44
:103E1000000A411CC8B20328F1DBD4ED250A60EE8C
:103E2000A00A94ED261AD4ED261A41EE210A94ED4B
:103E3000271AD4ED271A41EE210AB0EE600A00F0ED
:103E40006FFDF0EE408AF5EEC08AF1EE10FA02D175
:103E50009FED870A03E0F7EE000A80EEA80AB0EEB5
:103E600040AA00200EE004F1940101EB800191EDE5
:103E7000000A20EE280A03A901EB800181ED000A67
:103E8000411CC8B20328EEDB7F4890ED000AF0EE3B
:103E9000000A20EE200A7E48D0ED000AB0EE001A9B
:103EA00001EE200AF7EE000A30EEC00A84ED040AA3
:103EB000704880ED000A774890ED000AF0EE000AA5
:103EC00020EE200A7448D0ED000AB0EE001A01EE90
:103ED000600A84ED050A674880ED010A694890EDA3
:103EE000000AF0EE000A20EE200A6448D0ED000A35
:103EF000B0EE001A01EE200A84ED060A5D4880ED5E
:103F0000020A644890ED000AF0EE000A20EE200A52
:103F10006148D0ED000AB0EE001A01EE200A84EDEF
:103F2000070A544880ED030A554890ED000AF0EE68
:103F3000000A20EE200A5648D0ED000AB0EE001A22
:103F400001EE200AF7EE000A30EEC00A84ED080AFE
:103F5000484880ED040A4D4890ED000AF0EE000A52
:103F600020EE200A4448D0ED000AB0EE001A01EE1F
:103F7000600A84ED090A3F4880ED050A414890ED4A
:103F8000000AF0EE000A20EE200A3C48D0ED000ABC
:103F9000B0EE001A01EE600A84ED0A0A354880EDA1
:103FA000060A3A4890ED000AF0EE000A20EE200AD8
:103FB0003148D0ED000AB0EE001A01EE200A84ED7F
:103FC0000B0A2C4880ED070A2D4890ED000AF0EE10
:103FD000000A20EE200A2C48D0ED000AB0EE001AAC
:103FE00001EE200AF7EE000A30EEC00A84ED0C0A5A
:103FF000204880ED080AD0ED000A60EEA00A90ED9E
:10400000031AD0ED031A41EE210AB0EE600A00F067
:1040100087FCB0EE409A174890ED000A20EE090A9E
:1040200084ED0D0A90ED030A20EE090A84ED0E0AD4
:10403000002019E007EB800191ED000A04F128014E
:1040400001EB8001D1ED000A9FED141A01EE600A28
:10405000BDEEC00AB8EEC00A04F1400101EB8001D8
:1040600081ED000A411CC8B20328E3DB002041E0D7
:104070000000000098140020BC010020C0010020B6
:10408000C4010020C8010020CC010020D001002084
:10409000D4010020D8010020DC010020004075443C
:1040A000002100EE101A00BF18E000EB4002F84BB0
:1040B00003EB820202EB810292ED001A04F140024E
:1040C00002EB8102D2ED001AF8EEC00A41EE810A3D
:1040D000FDEEE00AB0EE600A4A1CD1B20329E4DB2F
:1040E000F8EEC00A04F14C0101EB8001C1ED000AB9
:1040F000411CC8B20328D3DB04F15802E54904F19E
:104100004C00FFF775FD9DED040AD4ED0C0A20EE7E
:10411000200AD4ED0B0A9DED051A00EEC10ADE4817
:1041200080ED000A9DED030AD4ED0C0A20EE200A72
:10413000D4ED0A0A9DED051A10EE810A80ED010A00
:104140009DED040AD4ED0A0A20EE200AD4ED0B0AF4
:104150009DED031A10EE810A80ED020A00200CE0AA
:1041600036F9101000EE101AB8EEC00ACB4901EB78
:10417000800181ED000A411CC8B20328F0DB3088C1
:1041800018B9708808B9B088E8B304F16401C3486D
:10419000FFF76CFDD4ED190A60EEA00A94ED1A1A2F
:1041A000D4ED1A1A41EE210AB0EE600A00F0B8FB15
:1041B000F0EE40AA94ED190A20EE2A0AB84880EDE4
:1041C000020A94ED1A0A20EE2A0A80ED030A01463B
:1041D000083000F0ADFEB34880ED000AB04901F1AF
:1041E000080000F0B2FEB04880ED000A90ED000A31
:1041F000B5EEC00AF1EE10FA26D2AA4890ED000AF8
:10420000DFEDAA0A00E020E0B4EEE00AF1EE10FAD9
:1042100001DD01200DE0A34890ED000ADFEDA40AC6
:10422000B4EEE00AF1EE10FA02D24FF0FF3000E0F7
:10423000002000EE100AB8EEC00AF7EE000A20EEE9
:10424000200A984880ED000A00BF00207CE09FED26
:10425000990AB4EEC0AAF1EE10FA06DC9FED960AB8
:10426000B4EEC0AAF1EE10FA08D21FED7F0A8A4917
:1042700081ED020A81ED010A81ED000A8F4901EB0F
:10428000800191ED000A844901EB8001D1ED000A23
:104290009FED8B1AF4EEC10AF1EE10FA02D8DFEDB1
:1042A000880A13E07C4901EB8001D1ED000A9FED03
:1042B000851AF4EEC10AF1EE10FA02DDDFED810A93
:1042C00004E0754901EB8001D1ED000A60EEA90A16
:1042D0007D4991ED001A00EE810A784901EB8001D9
:1042E00081ED000A6C4901EB800191ED000A7349F0
:1042F00001EB8001D1ED000A70EE200A08EB80018D
:1043000091ED000A714991ED001A00EE810A04F165
:10431000280101EB8001D1ED000A624991ED001AFC
:1043200060EE810A6A4991ED001A00EE810A20EEE2
:10433000290AF0EE000A80EE201A694601EB80019E
:1043400081ED001A411CC8B2032880DB94ED000AFD
:10435000D4ED010A9DED001A00EEC10AD4ED020A67
:104360009DED011A00EEC10AD4ED030A9DED021A7B
:1043700000EEC10A84ED000A94ED010AD4ED000AB2
:104380009DED001A00EE810AD4ED020A9DED021A9D
:1043900000EE810AD4ED030A9DED011A00EEC10A78
:1043A00084ED010A94ED000ADDED010A20EE200AF9
:1043B000D4ED010A9DED021A00EEC10AD4ED020A05
:1043C00030EE200AD4ED030A9DED001A00EE810ABA
:1043D00084ED020A94ED000ADDED020A20EE200AC7
:1043E000D4ED010A9DED011A00EE810AD4ED020A16
:1043F0009DED001A00EEC10AD4ED030A30EE200A4A
:1044000084ED030AD4ED000A60EEA00A94ED011ACF
:10441000D4ED011A41EE210A94ED021AD4ED021AEC
:1044200041EE210A94ED031AD4ED031A41EE210A5C
:10443000B0EE600A00F074FAB0EE408AD4ED000AE3
:10444000B0EE480A20EE800A84ED000AD4ED010A9D
:10445000B0EE480A20EE800A84ED010AD4ED020A8B
:10446000B0EE480A20EE800A84ED020AD4ED030A79
:10447000B0EE480A20EE800A84ED030AE87C58BBBF
:104480009FED140A124880ED000A0020687451E084
:104490009814002008010020BC140020D41400202F
:1044A00008020020E0010020E4010020BD3786352D
:1044B000BD3786B50080844400006144C8140020E4
:1044C000CDCCCCBDCDCCCC3D200200201C020020A8
:1044D0002402002000000000FFE7687C28B3B2EE51
:1044E000040A9C4880ED000A9B4890ED000AB5EE56
:1044F000C00AF1EE10FA1DD090ED000AB5EEC00A28
:10450000F1EE10FA02DD90ED000A04E0924890ED21
:10451000000AB1EE400ADFED910AB4EEE00AF1EED6
:1045200010FA07D20020687404E095ED020A894869
:1045300080ED000AA87C28B91FED1A0A884880ED92
:10454000000A77E0287C50B995ED000A844880ED98
:10455000000A95ED010A834880ED000A6AE0B2EE98
:10456000040A7F4880ED000A1FED260A7D4880ED91
:10457000000A7D4890ED000AB5EEC00AF1EE10FA8F
:1045800002DD90ED000A04E0774890ED000AB1EEFC
:10459000400A7548D0ED010AF5EEC00AF1EE10FAB6
:1045A00002DDD0ED010A04E06F48D0ED010AF1EE22
:1045B000600A30EE200A6D4880ED000A90ED000A96
:1045C000B5EEC00AF1EE10FA02D81FED3E0A0FE078
:1045D000664890ED000AF7EE000AB4EEE00AF1EE4C
:1045E00010FA02DDB7EE000A02E0604890ED000A22
:1045F0005E4880ED000A90ED000ADFED5D0AB4EE42
:10460000E00AF1EE10FA12D2687C80B959480078BD
:1046100068B159480088801C5749088008460088BE
:10462000B0F5C87F06DD00200880287402E0002075
:104630005149088006B0BDEC068BBDE8F08110B58D
:104640002DED028B4D48D0ED060A90ED061AB7EE1F
:10465000000A00EEC10AB5EEC00AF1EE10FA02D867
:104660001FED640A1BE04548D0ED060A90ED061ADE
:10467000B7EE000A00EEC10AF7EE000AB4EEE00A57
:10468000F1EE10FA02DDB7EE000A08E03B48D0ED8B
:10469000060A90ED061AB7EE000A00EEC10A384885
:1046A00080ED000A374890ED0C0AB5EEC00AF1EE35
:1046B00010FA02DD90ED0C0A04E0324890ED0C0A8D
:1046C000B1EE400ADFED300AB4EEE00AF1EE10FA86
:1046D0003CDD2B4890ED000A00F048F9B0EE408A2E
:1046E0002648D0ED060AB0EE600AF0EE480A00F067
:1046F0005CF8DFED260A20EE200A224880ED380A19
:104700001E4890ED081AF0EE410A90ED071AB0EE3F
:10471000410A00F04AF8DFED1D0A20EE200A194890
:1047200080ED370A154890ED001AF0EE410A90ED41
:10473000031AB0EE410A00F038F8B1EE400ADFED9E
:10474000130A20EE200A0F4880ED390ABDEC028BD7
:1047500010BD000024020020E00100200AD7233C05
:104760001C02002020020020BC140020E8010020D0
:104770000AD7A33C10320020EC010020981400203E
:1047800018020020D4000020CDCC4C3D33336542CC
:10479000F0EE400AF5EEC00AF1EE10FA02DBB0EEE0
:1047A000600A7047B1EE600AFBE700B5B0EE403A30
:1047B000B0EE602AB5EEC03AF1EE10FA07D1B5EED0
:1047C000C02AF1EE10FA02D19FEDFC1A99E0B0EE8A
:1047D000430AFFF7DDFFF0EE403AB0EE420AFFF782
:1047E000D7FFF0EE402AF4EEE23AF1EE10FA02D2F0
:1047F00083EEA24A01E082EEA34A9FEDF10AB4EEF5
:10480000C04AF1EE10FA02D2F0EE441A2DE0DFEDCC
:10481000ED0AB6EE000A14EE200AF0EE404ABDEEB4
:10482000E40A10EE100A00EE100AB8EEC00A34EEE8
:10483000C00AF0EE404AE44901EB800191ED000A24
:10484000F0EE401AE04A411C02EB810191ED000AB2
:10485000114601EB8001D1ED000A70EE600AB0EE66
:10486000610A00EEA40AF0EE401AF4EEE32AF1EE3B
:1048700010FA20DDB5EEC02AF1EE10FA0ADBB5EE33
:10488000C03AF1EE10FA02DBB0EE611A39E0B1EE97
:10489000611A36E09FEDCD1AB5EEC03AF1EE10FA8E
:1048A00004DB31EE610AB0EE401A2AE031EEC10AB3
:1048B000B0EE401A25E0B5EEC03AF1EE10FA10DB8A
:1048C0009FEDC31AB5EEC02AF1EE10FA04DB31EE0B
:1048D000610AB0EE401A14E031EE210AB0EE401A3F
:1048E0000FE09FEDBC1AB5EEC02AF1EE10FA04DB22
:1048F00031EE210AB0EE401A03E031EE610AB0EE6B
:10490000401AB0EE410A00BD00B5B0EE405AF0EEDC
:10491000605AF0EE450AB0EE650AFFF746FF00BDAB
:10492000F0EE400AF6EE001A60EEA11AB0EE611A3F
:10493000B0EE600A10EE100AA749A1EB600000EE8D
:10494000100A21EE002AF7EE081A42EE401A61EE34
:10495000801AB0EE610A21EE002AF7EE081A42EE44
:10496000401A61EE801AB0EE610A704700B5F0EEB1
:10497000402AB0EE620AFFF7D3FF20EE220A00BD04
:1049800010B52DED0A8BB0EE409AF0EE609A9FEDD7
:10499000930B53EC102B51EC190B14F021FD18D292
:1049A0009FED900B53EC102B51EC190B14F063FCA2
:1049B00041EC1B0B9FED8D0B53EC102B14F0B4FB53
:1049C00041EC1A0B53EC192B14F055FC41EC180B6D
:1049D00017E09FED840B53EC102B51EC190B14F0E6
:1049E0004AFC41EC1B0B9FED810B53EC102B14F098
:1049F0003FFC41EC1A0B53EC192B14F03CFC41EC3E
:104A0000180B9FED760B53EC102B51EC180B14F098
:104A1000E7FC20D29FED770B53EC102B51EC180BD9
:104A200014F082FB41EC1C0B9FED740B53EC102B2C
:104A300014F021FC41EC1B0B9FED6E0B53EC102B83
:104A400014F072FB41EC1A0B53EC182B14F013FC0E
:104A500041EC180B1FE09FED670B53EC102B51EC52
:104A6000180B14F002FC41EC1C0B9FED660B53EC91
:104A7000102B14F000FC41EC1B0B9FED5E0B53EC74
:104A8000102B14F051FB41EC1A0B53EC182B14F0C3
:104A9000F2FB41EC180BB0EE480AF0EE680ABDECF0
:104AA0000A8B10BD10B52DED068BB0EE408AF0EEEE
:104AB000608A01249FED550B53EC102B51EC180B21
:104AC00014F0A6FC0AD89FED510B53EC102B51ECBF
:104AD000180B14F0CAFB41EC180BA41E204614F06E
:104AE0003CFC41EC190BB0EE480AF0EE680AFFF707
:104AF00047FFB0EE40AAF0EE60AA53EC192B51EC40
:104B00001A0B14F0B8FB41EC100BBDEC068B10BD7A
:104B100010B52DED088BB0EE408AF0EE608A0124CE
:104B20009FED3C0B53EC102B51EC180B14F0FCFADE
:104B300041EC180B9FED350B53EC102B51EC180B7F
:104B400014F066FC0AD8A41E9FED300B53EC102B1A
:104B500051EC180B14F089FB41EC180B204614F0B3
:104B6000FCFB41EC1A0BB0EE480AF0EE680AFFF7C6
:104B700099FFB0EE40BAF0EE60BA53EC1A2B51EC4C
:104B80001B0B14F078FB41EC190B14F059FC00EEF0
:104B9000100ABDEC088B10BDF0EE401AF4EEE01ADE
:104BA000F1EE10FA3ADD31EEC10AB4EEE00AF1EEB0
:104BB00010FA3CD2B0EE600A39E0000000000000BC
:104BC0008180803B0000804328980108DB0F49402A
:104BD000DB0FC93FDB0FC9BFDF59375F00000000A3
:104BE00000000000000000602FF0D93F00000060CE
:104BF000305FF43F000000000000F03F000000C004
:104C0000CCCCCCBF000000C0CCCCCC3FF1D4C8533E
:104C1000FB210940F1D4C853FB21F93F31EE810A51
:104C2000B4EEE00AF1EE10FA01DDB0EE600A704772
:104C3000F0EE401AB1EE412A32EE202AB4EEE12A1B
:104C4000F1EE10FA09D231EE202AB4EEE12AF1EEAB
:104C500010FA02DDB0EE600A01E0B0EE610A7047C2
:104C6000F0EE402AB5EEC01AF1EE10FA02DDB0EE19
:104C7000410A01E0B1EE410AB6EE003A22EE033AF3
:104C800023EE213AB4EEC30AF1EE10FA06D29FEDFC
:104C9000E90A20EE800AF0EE400A4DE0B5EEC01AB7
:104CA000F1EE10FA02DDB0EE410A01E0B1EE410A88
:104CB00022EE213AB4EEC30AF1EE10FA06D29FEDCD
:104CC000DE0A20EE800AF0EE400A35E0B5EEC01AAA
:104CD000F1EE10FA02DDB0EE410A01E0B1EE410A58
:104CE000B4EEE10AF1EE10FA06D2B6EE000A20EEBA
:104CF000800AF0EE400A1FE0B5EEC01AF1EE10FA9D
:104D000002DDB0EE410A01E0B1EE410AB0EE003A38
:104D100021EE833AB4EEC30AF1EE10FA06D29FED0B
:104D2000C70A20EE800AF0EE400A05E09FEDC40AB3
:104D300020EE800AF0EE400A9FEDC20A20EE800AC3
:104D400020EE223AF7EE003A83EE830AB7EE003AFD
:104D500030EE030AF7EE003A83EE803A90ED000A57
:104D600071EE403A90ED000A03EE230A80ED000A4E
:104D700090ED000AB1EE423A23EE213AB4EEC30AB6
:104D8000F1EE10FA04D8B1EE420A20EE210A0DE04D
:104D900090ED000A22EE213AB4EEC30AF1EE10FAC9
:104DA00002DD22EE210A01E090ED000A80ED000A0A
:104DB00090ED000A31EE400A704710B52DED028BE0
:104DC000B0EE408AF0EE608A9FED9F0B53EC102B03
:104DD00051EC180B14F01CFB0CD29FED9D0B53EC07
:104DE000102B51EC180B14F040FA41EC100BBDECF9
:104DF000028B10BD9FED980B53EC102B51EC180B50
:104E000014F0EEFA0AD29FED920B53EC102B51ECFA
:104E1000180B14F089F941EC100BE8E7B0EE480AE2
:104E2000F0EE680AE3E710B504460B46F0EE403AB0
:104E3000D4ED000A60EEA00A93ED001AD3ED001A3B
:104E400041EE210AB0EE600AFFF790FDB0EE403A65
:104E5000B5EEC03AF1EE10FA02D81FEDA80A09E04B
:104E6000B4EEE33AF1EE10FA02DDB0EE630A01E0CF
:104E7000B0EE430AB0EE404AB5EEC03AF1EE10FA99
:104E800006D11FEDB20A82ED010A82ED000A0FE0A1
:104E900084EE030AD4ED000A20EE200A82ED000A17
:104EA00084EE030AD3ED000A20EE200A82ED010A07
:104EB00010BDF0EE400A0B7802EB8303C3ED000A4D
:104EC0000B785B1C0B700B78834201DB00230B70AB
:104ED0000B7802EB830393ED000A704700B502469E
:104EE000B0EE403A0B46F7EE000A43EE430AB0EE4E
:104EF000600AFFF73BFDD2ED000A20EE200AD2ED5A
:104F0000010A00EEC30A83ED000AF7EE000A43EE41
:104F1000430AB0EE600AFFF729FDD2ED010A20EE48
:104F2000200AD2ED000A00EE830A83ED010A00BDDB
:104F300090ED000AD1ED010A20EE200AD0ED010A21
:104F400091ED001A00EEC10A704790ED000AD1ED14
:104F5000000A20EE200AD0ED010A91ED011A00EEC0
:104F6000810A704790ED010AD1ED020A20EE200A75
:104F7000D0ED020A91ED011A00EEC10A82ED000A9D
:104F800090ED020AD1ED000A20EE200AD0ED000AD1
:104F900091ED021A00EEC10A82ED010A90ED000ABD
:104FA000D1ED010A20EE200AD0ED010A91ED001AA0
:104FB00000EEC10A82ED020A704790ED000AD1EDC1
:104FC000000A20EE200AD0ED010A91ED011A00EE50
:104FD000810AD0ED020A91ED021A00EE810A7047B3
:104FE00030B503460C46002021E0DFED1D0AB0EE8F
:104FF000600A002113E000EB400504EB850505EB9A
:10500000810595ED001A03EB8105D5ED001AF0EE50
:10501000400A41EE810AB0EE600A4D1CE9B2032954
:10502000E9DB02EB800181ED000A411CC8B20328D4
:10503000DBDB30BD9A99993FCDCC4C3FCDCC4C3E7B
:10504000CDCCCC3DC3F5C8400000000000806640D8
:10505000000000000080764000000000008066C074
:10506000000000002DE9F0412DED028B04460F46B3
:1050700016461D460CB9002003E04FF47A7090FBF1
:10508000F4F000EE100AF8EEC08AB1EE040A88EEE1
:10509000808A634805606348066063480078401C66
:1050A0006149087008460078052190FBF1F201FB88
:1050B00012005D4908700846007830BB5848006807
:1050C0005A490968401A00EE100AB8EEC00A20EEEC
:1050D000080ABDEEC00A564880ED000A006855492E
:1050E0000968401A00EE100AB8EEC00A20EE080A5D
:1050F000BDEEC00A504880ED000A494800684B499F
:1051000008604B4800684B4908609FED4C0A4C48CA
:1051100080ED020A434890ED000AB8EEC00A484804
:1051200080ED000A444890ED000AB8EEC00A4448F9
:1051300080ED010A9FED430A80ED030A00EE904ADC
:10514000F8EE600A9FED401A60EE810AB0EE600A48
:10515000FEF72CF99FED3D0A3D4880ED020A3848E4
:1051600090ED060A3A4880ED000A314890ED000AB9
:10517000B8EEC00A364880ED010A9FED320A80ED94
:10518000030A00EE904AF8EE600A9FED2F1A60EED7
:10519000810AB0EE600AFEF74EF99FED2E0A2E4806
:1051A00080ED020A2A4890ED050A2B4880ED000A9E
:1051B00000EE105AB8EEC00A80ED010A00EE904AE7
:1051C000F8EE600A9FED201A60EE810AB0EE600AE8
:1051D000FEF731F9BDEC028BBDE8F0819FED1F0AAF
:1051E000174880ED060A0F480068404200EE100A9A
:1051F000B8EEC00A124880ED050A9FED180A14485F
:1052000080ED050A9FED150A80ED040A9FED130A53
:10521000114880ED050A9FED110A80ED040A7047E0
:10522000300200203C020020400200202802002022
:10523000340200202C02002038020020CDCCCC3DCE
:10524000EC1400200000C8426F12833A9A99193F6B
:10525000081500209A99993E2015002000000000B2
:10526000B0EE403AB5EEC03AF1EE10FA02D19FED41
:10527000430A03E0F7EE004A84EE830AB0EE404AA8
:1052800091ED010A31EE400A20EE040A81ED050A93
:10529000027842B991ED020A31EEC00A20EE040A0A
:1052A00081ED030A03E091ED040A81ED030A90ED1C
:1052B000030AD1ED054A20EE240AD0ED044A91ED0F
:1052C000035AF0EE403A44EEC53A31EE610A81ED00
:1052D000000AD0ED024A91ED000AB1EE425AB4EE56
:1052E000C50AF1EE10FA02D8B1EE420A0BE091EDD8
:1052F000000AB4EEC20AF1EE10FA02DDB0EE420A84
:1053000001E091ED000A64EE804A91ED060A04EE98
:10531000830A81ED060A91ED060AF1EE624AB4EEC7
:10532000E40AF1EE10FA02D8B1EE620A0BE091ED58
:10533000060AB4EEE20AF1EE10FA02DDB0EE620AFD
:1053400001E091ED060A81ED060A90ED010AD1ED2A
:10535000004A20EE240AD0ED054A04EEA00A30EE01
:10536000230AD1ED064A30EE240A81ED090AC1ED87
:10537000021A81ED011A91ED090A70470000000040
:10538000794890ED120A794880ED000A764890ED50
:10539000130A764880ED010A734890ED140A7348A9
:1053A00080ED020A704700B5FFF7EAFF022070495E
:1053B000C87000BD10B50246DFED6E0AB0EE600A9F
:1053C0004AB14FF47A7090FBF2F000EE900AF8EEDA
:1053D000E00AB0EE600A00201BE0674901EB8001A3
:1053E000D1ED000AFDEEE00A10EE901AC31C634CEA
:1053F00044F823106049183101EB8001D1ED000A17
:10540000FDEEE00A10EE901A234643F82010411CEE
:10541000C8B20328E1DB002076E0C11C574B53F8EB
:10542000211000EE901AF8EEE00A554901EB8001D8
:10543000C1ED000A194651F8201000EE901AF8EE5E
:10544000E00A504901EB8001C1ED000A042157E058
:1054500001EB41034A4C303C04EB830303EB800334
:10546000D3ED000A4B1E03EB430304EB830303EB72
:10547000800393ED001A30EEC11A4B1E03EB430379
:1054800004EB830303EB8003D3ED000ADFED3E1A48
:1054900041EE810A4B1E03EB430304EB830303EB52
:1054A0008003C3ED000A01EB4103364C303C04EBB2
:1054B000830303EB8003D3ED000A4B1E03EB43038E
:1054C00004EB830303EB800393ED001A30EEC11A63
:1054D0004B1E03EB430304EB830303EB8003D3ED89
:1054E000000ADFED291A41EE810A4B1E03EB43034C
:1054F00004EB830303EB8003C3ED000A4B1ED9B218
:105500000029A5DC411CC8B2032886DB002027E067
:105510001B49303901EB8001D1ED000A1B4901EB39
:105520008001C1ED000A1749303901EB8001D1ED4E
:10553000000A16490C3901EB8001C1ED000A13493C
:1055400001EB8001D1ED000A9FED111A60EE810A96
:105550000E490C3101EB8001C1ED000A411CC8B2BB
:105560000328D5DB10BD0000441A002038150020A8
:10557000980400200000000068320020B0150020D0
:10558000F815002034160020AE47613E901500202B
:105590004DF38E3C10B50446204601F039F8FE4824
:1055A000C07A48B1FC48807B58B1FB48C07C40B908
:1055B0000120F949C87404E00020F8490880F64940
:1055C000C874F548C07C012874D1F54991ED430AAF
:1055D000F3EE040AB4EEE00AF1EE10FA02D8B3EEEC
:1055E000040A0FE0EE4991ED430ADFEDEE0AB4EE56
:1055F000E00AF1EE10FA02DD9FEDEA0A02E0E84966
:1056000091ED430ABDEEC00A10EE101A08B2E64949
:1056100009882144E44A1180E14991ED420AE349B5
:10562000D1ED050A30EE600AF0EE000A20EE200A05
:10563000BDEEC00A10EE101A09B2D84A1180114608
:10564000B1F90010002901DC002109E0D349B1F9CA
:105650000010814201DD014602E0D049B1F900109D
:10566000CE4A1180D049098841F2883291420EDA3F
:10567000CB4991ED420ACE49D1ED020A30EE600AE3
:10568000F0EE000AB4EEE00AF1EE10FA02D20221C6
:10569000C14AD174C4490988B1F5FA6F1ADDC54908
:1056A00091ED090AB5EEC00AF1EE10FA03DD91EDB5
:1056B000090A05E00FE0BF4991ED090AB1EE400A81
:1056C000DFEDBD0AB4EEE00AF1EE10FA02DD0221D0
:1056D000B14AD17409E00020B3490880AE48C07CCB
:1056E000022802D10020AD490880AB48C07C0328C5
:1056F00024D1AB4890ED440AF3EE040AB4EEE00A7C
:10570000F1EE10FA02D8B3EE040A0FE0A44890EDCF
:10571000440ADFEDA40AB4EEE00AF1EE10FA02DD6D
:105720009FEDA00A02E09E4890ED440ABDEEC00A3B
:1057300010EE100A404200B29849088010BD984807
:1057400090ED300A9D4880ED010A954890ED310AB0
:105750009A4880ED020A9FED9A0A80ED030A90486C
:1057600090ED320A954880ED040A9FED950A80ED90
:10577000050A704710B52DED028BB0EE408A9FED03
:10578000910A28EE000ABCEEC00A10EE101AC8B248
:10579000FFF700FF8748D0ED030A8048B0F900000A
:1057A00000EE100AB8EEC00A30EE800ABDEEC00A64
:1057B00010EE100A00B27F4908807D4890ED020A81
:1057C0000846B0F9000000EE900AF8EEE00A00EE9C
:1057D000880A774880ED020A90ED020AD0ED050AAA
:1057E0009FED701A70EEC10AB4EEE00AF1EE10FA05
:1057F00006D890ED050ADFED6B0A30EE600A17E07F
:105800006B4890ED020AD0ED050A9FED661A70EE26
:10581000810AB4EEE00AF1EE10FA06DD90ED050A19
:10582000DFED600A30EE200A02E0614890ED020AE6
:105830005F4880ED020A5D4890ED050ABDEEC00AA2
:10584000B8EEC00A5A4880ED050A5A48008818B1D7
:1058500000205149487425E05B4890ED020AD0EDE4
:10586000050A30EE600AB5EEC00AF1EE10FA06DD68
:1058700090ED020AD0ED050A30EE600A08E05248C9
:1058800090ED020AD0ED050A30EE600AB1EE400A52
:10589000F3EE040AB4EEE00AF1EE10FA02D20120AF
:1058A0003D4948743C48807B012815D1404890ED23
:1058B000050AF0EE401A90ED020AB0EE401ADFED54
:1058C000402A9FED422A42493C48DFED3D0AB0EEB6
:1058D000480AFFF7C5FC09E0354890ED050A80ED60
:1058E000020A9FED370A3A4880ED090A384890EDE0
:1058F000090ADFED380AB4EEE00AF1EE10FA02D838
:105900009FED340A0FE0324890ED090ADFED320ACC
:10591000B4EEE00AF1EE10FA02DD9FED2F0A02E08C
:105920002B4890ED090A2A4880ED090ABDEC028B4C
:1059300010BD1B4890ED2D0A284880ED010A18483B
:1059400090ED2E0A254880ED020A9FED1D0A80ED9C
:10595000030A9FED1B0A80ED040A9FED190A80EDF2
:10596000050A704710B52DED028BF0EE408A0A480B
:10597000807B08B1012000E0002008EE100A012021
:1059800005498875124890ED090A0A48B0F90000E7
:1059900000EE900A24E00000581400204402002089
:1059A000441A002000004843500200202015002027
:1059B000001A0020A8180020CDCCCC3D40160020B5
:1059C0000000000000007A44DC1900200000C842FA
:1059D00058160020000016C3000016438016002051
:1059E000F8EEE00A9FED501A01EE200A4F4880EDD4
:1059F000020A4F4890ED150A4E48D0ED000A70EEAD
:105A0000600A90ED000A9FED4C1A01EE200A80ED2D
:105A1000000A4A4890ED050A4948D0ED2F0A45484A
:105A200090ED001A00EE810A404880ED050A4548D5
:105A300090ED000ADFED440A30EEC00AF8EE480AA5
:105A400020EE200AF0EE402A384890ED050AF0EEEC
:105A5000401A90ED020AB0EE401A1FED242A3B498D
:105A60003B485FED290AB0EE680AFFF7F9FB3948B9
:105A7000807B01281DD19FED380A28EE800AB7EE01
:105A8000001AC1EE000AB7EE000A30EE800AB7EE47
:105A9000001AC1EE000A2B4890ED000A9FED2F1A64
:105AA00031EE401A90ED000A00EE810A80ED000A06
:105AB00004E01FED3D0A234880ED000A234890EDE5
:105AC000090A2048D0ED000A30EE200AF8EE480A14
:105AD00020EE200A154880ED080A90ED080AB5EE80
